:0C0000000C942A000C9400000C940000EA
:10000C000C9400000C9400000C9400000C94000064
:10001C000C9400000C9400000C9400000C94000054
:10002C000C9400000C9400000C9400000C94000044
:10003C000C9400000C9400000C9400000C94000034
:10004C000C9400000C940000F894EE27ECBBF1E04B
:10005C00FBBFEBBFE5BF8DE0A2E0BB27ED938A951C
:10006C00E9F780E098E0A0E6ED930197E9F7EFE57A
:10007C00EDBFE8E0EEBFC0E6D2E00C944500E0E056
:10008C00EABBEBBBE7BBE1E0E8BBEFE0E4BBE0E0E5
:10009C00E5BBE1BBE2BBEFE0E5BB09D0B09905C025
:1000AC00EAE0E5BBB09BFECF02D0F7CFFFCFE3B3C6
:1000BC00E150E5BBACE2B1E00C946400109639F071
:1000CC00A8958AEF90E00197F1F71197C9F7089579
:00000001FF
