:100000000C943E000C9400000C9400000C94000032
:100010000C9400000C9400000C9400000C94000060
:100020000C9400000C9400000C9400000C94000050
:100030000C9400000C9400000C9400000C94000040
:100040000C9400000C9400000C9400000C94000030
:100050000C94000000000000777C395E79716F76A7
:1000600055AA55AA55AA55AA040004005400080030
:10007000600258000800680260000000F894EE2753
:10008000ECBBF1E0FBBFEBBFE5BF8DE0A2E0BB271F
:10009000ED938A95E9F780E098E0A0E6ED9301976B
:1000A000E9F7E8E6F0E085919591009761F0A59178
:1000B000B59105901590BF01F00105900D92019743
:1000C000E1F7FB01F0CFEFE5EDBFE8E0EEBFC0E602
:1000D000D2E00C946B00E0E0EABBE1E0EBBBE0E0D7
:1000E000E7BBE8BBEFEFE4BBE0E0E5BBEFE7E1BB7C
:1000F000E0E0E2BBE0E0E5BBE2BBC8991DC0C89B05
:10010000FECF44245524E8E0F0E04E165F06A4F448
:10011000A8E6B2E0A40DB51DEC91E5BBA0E6B2E007
:10012000A40DB51DEC91E2BBA8E5B2E00E949E00D3
:10013000F20131962F01E7CFDDCFFFCF109639F0D6
:10014000A8958AEF90E00197F1F71197C9F7089504
:00000001FF
