:0A0000000C9458000C9400000C94BE
:10000A0000000C9400000C9400000C9400000C9466
:10001A0000000C9400000C9400000C9400000C9456
:10002A0000000C9400000C9400000C9400000C9446
:10003A0000000C9400000C9400000C9400000C9436
:10004A0000000C9400000C94000054656D703D2073
:10005A0025302E3266005665727920486F74004D3D
:10006A006F646572617465005665727920636F6C9E
:10007A0064002D4E414E000080C001002D4E414EBD
:10008A0000494E460000090060026000090069024A
:10009A0069000A007202720002008B0282000100EB
:1000AA008F0284000000F894EE27ECBBF1E0FBBF5E
:1000BA00EBBFE5BF8DE0A2E0BB27ED938A95E9F798
:1000CA0080E098E0A0E6ED930197E9F7E0E9F0E037
:1000DA0085919591009761F0A591B591059015903C
:1000EA00BF01F00105900D920197E1F7FB01F0CFF6
:1000FA00EFE5EDBFE8E0EEBFC0E6D2E00C94930076
:10010A00AA93E881E7B983E08A95F1F7369A349B96
:10011A00FECF349AE4B1F5B10C94E804EFEFEABBF0
:10012A00E0E0EBBBE7BBE8BBE4BBE5BBE1BBE2BBA2
:10013A00E7B9E4E8E6B9E0E0E0BFA0E10E94BD0467
:10014A00A3E0DEDFACE7B2E0662777270E948E07DE
:10015A000E9440090E94F905EAEAF1EF62E070E4C0
:10016A000E946608E0937C02F0937D0260937E020F
:10017A0070937F02E0E8F2E0FA93EA93E4E5F0E0B4
:10018A00FA93EA93E0917C02F0917D0260917E02FB
:10019A0070917F020E94540984E00E942A042896E2
:1001AA000E948B04A0E8B2E00E94AC040E940206FE
:1001BA0009F008F406C00E940A06A0E6B2E00E940E
:1001CA00AC040E940F0609F008F403C00E9402065C
:1001DA0008F006C00E940A06A9E6B2E00E94AC0432
:1001EA000E940F0630F40E940A06A2E7B2E00E94BB
:1001FA00AC04A8ECB0E00E941807A2CFFFCFBA93D4
:10020A00AA931A930A93AA81BB8112960E9436096D
:10021A00309729F1AA81BB8114960E9436098F0171
:10022A00309761F00230E0E01E0780F0F801319764
:10023A008F01AA81BB811496ED93FC93AA81BB819D
:10024A0012960E9417063197AC81A083AA81BB81BE
:10025A000E943609FF2312F00E94170606C0AA81DF
:10026A00BB81EFEFFFEFED93FC931981088125968F
:10027A0008950E941D06E0E8EA83EFE3EB830E94FB
:10028A007109EE85FF85EF3FAFEFFA0749F4E8857C
:10029A00F985FA93EA93ACE7B0E00E94EA04B7C0A2
:1002AA00EF3FAFE7FA0749F4E885F985FA93EA934D
:1002BA00ADE7B0E00E94EA04AAC0AB85A73010F00F
:1002CA00E6E0EB871B85E12F1150E03019F00E9420
:1002DA002406F9CFEC85FD856E857F850E946B0922
:1002EA0021F430E00E9424062DC03B850E9433068B
:1002FA0009F008F40BC00E9424060E94330628F075
:10030A000E943E060E944306F8CF0DC00E943306A3
:10031A0040F40E943E060E944F060E945606315043
:10032A00F5CF0E942406EC85FD856E857F850E94A7
:10033A005B060E9456060E94330620F00E943E0683
:10034A000E94430610E0EB85E117A8F1AC81BD815C
:10035A008E819F810E9462060E945B06DF01CB01AB
:10036A000E944105EC83FD836E837F830E943E06D3
:10037A000E9466080E9455070E2F0E9469060E9475
:10038A007006FF27662777270E948E07AC81BD81FA
:10039A008E819F810E9418080E943E060E9475065F
:1003AA000E945606E12F1F5FE03069F60E94690637
:1003BA00EEE2EC93C8CF0E947A063197AA85A08311
:1003CA0030302CF43195A885B985EDE203C0A885B3
:1003DA00B985EBE2EC930E947A060E947A0631977D
:1003EA00BF01A32FEAE00E94F008E05DDB01EC9375
:1003FA000E947A063197BF01A32FEAE00E941A09E8
:10040A00E05DDB01EC93A885B985E0E0EC930E94FE
:10041A00780960960895BA93AA93EF9761970E9414
:10042A006F0910E0FE01E85AFF4F0190F081E02DBC
:10043A00E887F987FE01EA5AFF4F0190F081E02D23
:10044A00EE83FF83AE81BF81E0E0F0E0ED93FC93A1
:10045A00DE01A45ABF4F0E9417063197E4912E2F4E
:10046A00E03009F4E9C1E12FE03039F4253211F422
:10047A0011E002C00E948006DEC1E130C1F42532DB
:10048A0019F40E948006D6C112E0E0E0ED8B00E08C
:10049A002D3211F401E0CFC12B3219F4EBE2ED8BCE
:1004AA00CAC1203219F4E0E2ED8BC5C102C0E230C4
:1004BA0039F450E013E0203311F40068BCC102C0E3
:1004CA00E33091F4203310F02A3308F007C0AAE091
:1004DA005A9F502DE22FE0535E0FADC140E02E32FD
:1004EA0011F414E0A8C10FC0E43099F4203310F0DD
:1004FA002A3308F008C00062AAE04A9F402DE22F82
:10050A00E0534E0F98C12C3619F4026015E093C1DE
:10051A0003C0E53009F08FC1E22FE33659F40E9497
:10052A0087060E948E060E948706A481AA930E94CB
:10053A00950680C1E53411F0E53609F403C0E636C4
:10054A0009F048C0FE017696EE87FF870E949B0657
:10055A000E943A090E94A2060E94A706AD85AA2314
:10056A0032F0AD89AB3259F0A03281F017C00E9447
:10057A00A9060E9422070E94A206EDE2ED8B07FF60
:10058A0005C0ED89EA930E94950608C0EE85FF85AD
:10059A003196EE87FF873197AD89A08305FF46E044
:1005AA00263651F40E94A9060E9454094A93AB893F
:1005BA00BC890E94580509C00E94A9060E945409D4
:1005CA004A932A93AC89BD8954DEFE0176960E942D
:1005DA00AE061EC0E33739F40E94A7060E94B6068B
:1005EA000E94AE060EC0E037C1F40E94A7060E9420
:1005FA00B606EE87FF87AE85BF850E9403051E2FCC
:10060A0008600F77403011F0411708F001C0142F2D
:10061A0040E0E0E0EC8B30E06DC0E43611F0E93602
:10062A0011F4046002C0E537A1F4EAE0EC8B01FFA3
:10063A0008C0E0E0FAEC6AE97BE30E94BB061AE034
:10064A0022C0E0E1F7E260E070E00E94BB0615E03C
:10065A001AC0E83511F4086003C0E83709F0EAC0A7
:10066A00E0E1EC8B01FF08C0E0E0F0E060E070E15F
:10067A000E94BB0618E007C0E0E0F0E160E070E02D
:10068A000E94BB0614E0403011F00F7701C041E030
:10069A0001FF08C00E94A7060E949B0614960E94AA
:1006AA003A090FC002FF07C00E94A7060E94B606B9
:1006BA000E94DD0806C00E94A7060E94B6066627A9
:1006CA007727EA87FB876C877D8702FF12C0AD8593
:1006DA00AA2342F40E94A9060E94CF080E94A206F9
:1006EA00EDE2ED8BED89E03019F01F5F4F5F01C03D
:1006FA000B7F342F00FD14C0151710F4351708F0BE
:10070A000FC007FF08C002FF04C00B7F2D891150DC
:10071A0001C020E301C020E20E9480065150ECCFC4
:10072A00141790F4006102FF06C00E94C00609F087
:10073A00515011504150E0E3EA930E94950650301F
:10074A0009F051504150ECCF312FEC89E030B9F427
:10075A003030A1F003FF06C0EE85FF852591EE87B4
:10076A00FF8705C0AE85BF852D91AE87BF870E94E2
:10077A008006503009F051503150EACF51C00E94E2
:10078A00D2060E94F5082E2F2A3030F003FF02C04D
:10079A00295C01C0295A01C0205D04FD21C0213312
:1007AA0060F4A889B9898A899B89A130E0E0BE07EB
:1007BA00E0E08E07E0E09E0709F40BC0431740F41F
:1007CA00531710F000FF01C010C020E207FF08C055
:1007DA0020E3006102FF04C00E94C00609F05150E4
:1007EA000E948006503009F0515031500E94D206C2
:1007FA000E9426090E94A206EC89A889B9898A89D9
:10080A009B89FF27662777270E94F5080E94BB0667
:10081A00E889F9896A897B890E946B0909F0AFCF57
:10082A0000FF08C0503031F05150E0E2EA930E94D4
:10083A009506F8CF10E00CCEAE81BF810E94360932
:10084A000E947609EF966F960895FF92F82E2697E2
:10085A000E9471090E94DB06309719F4EFEFFFEF4F
:10086A0023C0DE0116960E94CB088D010E94DB068A
:10087A00EE83FF83E0E0E887E987DE011A960E94AB
:10088A00CB080E943609FA93EA931A930A93E4E092
:10089A00F1E0FA93EA93DE011A96BDDD9F01AE817B
:1008AA00BF81E0E0EC93F9010E9478092A96FF9053
:1008BA000895AA93EBB3EF70AE2FE881E07FEA2B9D
:1008CA00EBBB82E08A95F1F7DA9A82E08A95F1F732
:1008DA00DA9882E08A95F1F776C0AA93A881E9DFCF
:1008EA00E881E295E883A881E4DF81E18A95F1F75E
:1008FA006AC0AA93E881F0E0E557FD4FE081A9813B
:10090A00AE0FEBDF5980488022960895A2E00E943C
:10091A00E206ACE0E2DFA1E00E94E206E0E04E2E51
:10092A005E2E0895AA93A881AA3011F0571448F0B0
:10093A00E0E0EA934394A42DDCDFA881AA3009F40D
:10094A0042C05394D89AA881C8DFD8983CC0BA93B9
:10095A00AA931A93A981BA81ED91A983BA831E2F0A
:10096A00E03019F0A12FDEDFF5CF18812396089524
:10097A00AA93EAB3E06FEABBD29AD09AD19ADA98EC
:10098A00D898D9987880E881E058E0938D02E88178
:10099A00E054E0938E02A4E1B0E00E9418070E949E
:1009AA00E8060E94E8060E94E806A0E282DF81E2E9
:1009BA008A95F1F7A8E291DFA4E08FDFA5E88DDF41
:1009CA00A6E08BDFA3DF21960895BA93AA93E99153
:1009DA00F991A991B991CD0105900D920020E1F705
:1009EA00FC010895BA93AA93A991B991EE27FF271A
:1009FA006D91662311F03196FBCF0895BA93AA93AD
:100A0A00AA27BB27E991F9910590002011F01196C8
:100A1A00FBCFFD0108950E9459097B816A81F98102
:100A2A00E88177FB770F67FD7160972F9E5781F0FA
:100A3A0078F0983190F4AA27BB27882708948795DD
:100A4A00B795A7959A95D1F7EA23FB23682305C0A2
:100A5A00E8947727EE27FF2766276F77769508F4BD
:100A6A00606877F9A991B99189919991EA17FB0779
:100A7A006807790797FB08950E9459090E944A0955
:100A8A000E9410050E944F0919F40E94450909C0E5
:100A9A00E6F70E944509A0E0B0E080E89FE30E94E3
:100AAA00C10724960895C4D0E0E0EA83EFE3EB831C
:100ABA001A930A93EB85FC85EF3FAFEFFA0731F4FF
:100ACA0089D1A6E8B0E00E94EA048AC0EF3FAFE706
:100ADA00FA0731F47FD1A7E8B0E00E94EA0480C0A7
:100AEA00AC85AA2352F4E985FA856B857C850E9438
:100AFA00220775D179D1EDE2EC93A885A73010F0E1
:100B0A00E6E0E8871885E12F1150E03021F073D133
:100B1A00D4D076D1F8CF79D10E94C80760D110E03D
:100B2A00E0E0F0E060E87FE36BD16FD10E94AB08B0
:100B3A0068F061D1AFD064D11F5F173230F04AD16B
:100B4A00ABE8B0E00E94EA044BC0EFCF103021F4CA
:100B5A004BD1E0E3EC9320C0E12F1150E030E1F0FB
:100B6A004AD1ABD0A3D0DF01CB010E94410548D1C5
:100B7A004CD10E9466080E9455070E2F35D1ABD082
:100B8A00F0E039D10E94DD080E948E070E94180801
:100B9A0045D1A6D024D1E0CFE885E030E9F024D1D0
:100BAA00EEE2EC93E885E150E887EF5FA9F036D1F1
:100BBA0071D015D1E985FA856B857C850E94550728
:100BCA000E2F12D188D0F0E029D10E94DD080E94B0
:100BDA008E0786D004D1E6CFAE81BF81E0E0EC93E8
:100BEA00198108812D960895A0917C02B0917D0209
:100BFA0080917E0290917F020895F6DFE0E0F0E0B6
:100C0A0060E272E40E94AB080895E0E0EA93A1E092
:100C1A000C947E04E9DFE0E0F0E060EA70E40E9410
:100C2A00AB080895ED91FD913196FE93EE930895E8
:100C3A00BA93AA932497E0E0E883E9830895AC8104
:100C4A00BD818E819F81E0E0F0E060E271E40E9464
:100C5A001808EC83FD836E837F830895EC81FD8100
:100C6A006E817F81AC85BD858E859F850E94AB088C
:100C7A000895AC85BD858E859F850895EDECFCECC5
:100C8A006CEC7DE30E941808EC87FD876E877F87EE
:100C9A003F5F0895E0E0F0E060E271E40E94180826
:100CAA000895EC87FD876E877F870895A0E0B0E0FE
:100CBA0080E09FE30E94C8070895EDECFCEC6CEC21
:100CCA007DE30E9418080895A885B9851196A8871A
:100CDA00B98711970895E02FE05DEC93E02F08950E
:100CEA000E945E090E94C1070895E885F985319638
:100CFA00E887F98708952A93AF81B885E985FA8547
:100D0A0009950895FE01E65AFF4F0190F081E02D02
:100D1A0008953497DE01A65ABF4FED93FC930895C8
:100D2A00AF81B885E985FA8509950895DE01A65A45
:100D3A00BF4F0D90BC91A02D0895EA87FB876C8761
:100D4A007D870895DFDFE5CFEA85FB856C857D85A4
:100D5A000895EE87FF87AE85BF850E94F7041E2F90
:100D6A000895E4DF14960E9436090895E88BF98BFA
:100D7A006A8B7B8B08950B7FED89EA93DE01A95A72
:100D8A00BF4F0D90BC91A02DFE01E75AFF4F019075
:100D9A00F081E02D099550300895E889F9896A892A
:100DAA007B89AA85BB858C859D850895DE011C9665
:100DBA000E94CB080E94360908950E947204A3E09B
:100DCA00B0E00C941807A0E30E945E0481E28A95C1
:100DDA00F1F70895EE81FF81FA93EA930895E9877E
:100DEA00FA876B877C870895AE81BF811196AE839F
:100DFA00BF8311970895AA81BB818C819D81089533
:100E0A00EA83FB836C837D830895EA81FB816C818D
:100E1A007D81A985BA858B859C850895A985BA8522
:100E2A008B859C850895109639F0A8958AEF90E0F5
:100E3A000197F1F71197C9F708953097604070400C
:100E4A0009F070580895552342F4503811F4E0FF20
:100E5A0004C03196691F791F6BF050E8572711F4C7
:100E6A005F93CFC05F3F31F0660F000C57956795CF
:100E7A00752F08955F9300200AF0CFC0C8C050E8CC
:100E8A00192E1522880F991F9527550F879550E817
:100E9A00072E0522660F771F7527550F6795089548
:100EAA00689401C0E8945F93F2DF703818F07F3FCE
:100EBA0008F4A7C056E1571BAAF4519558300EF40E
:100ECA00593030F0EFEFFFEF6FEF7FE777F91AC095
:100EDA0077275523B9F0EE0FFF1F661F771F5A9524
:100EEA00D1F710C07727583028F0EF2FF62F672F49
:100EFA005850F9CF552331F076956795F795E795D0
:100F0A005A95D1F700200AF445D15F910895689463
:100F1A0001C0E894309760407040B1F0002426F098
:100F2A00772312F4009436D1172E7EE1112032F085
:100F3A007A95EE0FFF1F661F111CF9CFEF2FF62FC0
:100F4A00612D5F938ADF5F9108954F93AF01FD0191
:100F5A00DA01AB01BC01CA01402D012C142E4F91BC
:100F6A000895EA0FFB1F681F0895E095F0956095B4
:100F7A00EF5FFF4F6F4F08955F9381DF903871F1F4
:100F8A0050E8152604C05F937ADF903839F170383B
:100F9A0021F1572F591B2BF112F4D7DFFACF583111
:100FAA0018F0AA27BB278827583028F0AB2FB82F6C
:100FBA0088275850F9CF552329F08695B795A795D4
:100FCA005A95D9F7502D512572F0CBDF38F4679531
:100FDA00F795E795739513F420C0B7DF3EDF5F916D
:100FEA000895D8F7FBCFEA1BFB0B680B51F010F4FE
:100FFA000094BBDF662392F3EE0FFF1F661F7A95FC
:10100A00CBF7EE27FF27662777275F910895EFEF43
:10101A00FFEF6FE77FEF5F910895EFEFFFEF6FE765
:10102A007FE75F9108955F932ADF703851F3903814
:10103A0041F301240894791F23F41CF300203AF3A6
:10104A00ECCF0F921F932F933F934F931127222791
:10105A009927689FA0018F9F302D410D591F6B9FC3
:10106A00300D411D591F8E9F27D0BF9F25D06A9FE3
:10107A0023D0BE9F1DD0AF9F1BD0AE9F110D291F3D
:10108A00391F491F591FE32FF42F652F522F4F91F4
:10109A003F912F911F910F9066232AF0550FEE1F53
:1010AA00FF1F661F02C073954BF2CDDE5F91089554
:1010BA00100D211D391F02C0200D311D491F591F56
:1010CA0008955F93DCDE703821F411200AF49FCF73
:1010DA00A4CF903809F495CF01240894970B1BF4F8
:1010EA00D4F30020F3CF792F1F932F933F934F937D
:1010FA0011241127222733274427552790E2AE17B8
:10110A00BF078607410730F0AE1BBF0B860B410BAA
:10111A00089401C08894551F221F331F111CAA1F4F
:10112A00BB1F881F441F9A9551F7F901612D4F91F2
:10113A003F912F911F91662332F0550FEE1FFF1F2B
:10114A00661F7A9543F27FDE5F91089599239AF09C
:10115A00772342F0971748F029F4AE17BF0786079E
:10116A0020F031F0989488940895989408940895FA
:10117A001894889408957723C2F7971798F3A9F7D4
:10118A00EA17FB07680788F399F3ECCF0024AF0D41
:10119A00B01D0895F09560957095E195FF4F6F4FDA
:1011AA007F4F0895FE2FFF0FFF0B6F2F7F2F08959C
:1011BA006F2F660F660B762F0895002498E0AA0F0A
:1011CA00001C0E1A10F40E0E01C0A1609A95B9F710
:1011DA00EA2FA02D089539D0F0DF0EF4E195089595
:1011EA003F934F935F93002411244427552730E2FD
:1011FA00AA0FBB1F881F991F001C111C441F551FD3
:10120A000E1A1F0A460B570B28F40E0E1F1E461FF6
:10121A00571F01C0A1603A9559F7FD01BC01D001E1
:10122A00CA015F914F913F910895E894A7FF02C0C8
:10123A00A1956894E7FDE195C0DFEA2F0EF4E195E8
:10124A000895CEDFFD01BC010895E894E7FF02C0CE
:10125A00E1956894A7FF04C0A19500F8039400FAE9
:10126A000895ED91FC9111970895ED91FD916D917D
:10127A007C9113970895ED93FD936D937C93089554
:10128A00E881F9816A817B810895A881B9818A817F
:10129A009B810895E883F9836A837B8308957A930F
:1012AA006A93FA93EA9308959A938A93BA93AA93BC
:1012BA000895182E862F612D192E972F712D1B2E0A
:1012CA00BF2FF12D1A2EAE2FE12D089530976040D1
:1012DA00704008955A934A933A932A931A930A9319
:1012EA0008955D814C813B812A8119810881089585
:00000001FF
