:0E0000000C943B000C9400000C9400000C9437
:10000E0000000C9400000C9400000C9400000C9462
:10001E0000000C9400000C9400000C9400000C9452
:10002E0000000C9400000C9400000C9400000C9442
:10003E0000000C9400000C9400000C9400000C9432
:10004E0000000C940000416C61726D005361666596
:10005E00000080C0060060025400050066025A00CF
:10006E0002006B0260000000F894EE27ECBBF1E09A
:10007E00FBBFEBBFE5BF8DE0A2E0BB27ED938A95FA
:10008E00E9F780E098E0A0E6ED930197E9F7E2E664
:10009E00F0E085919591009761F0A591B59105904D
:1000AE001590BF01F00105900D920197E1F7FB014C
:1000BE00F0CFEFE5EDBFE8E0EEBFC0E6D2E00C9486
:1000CE006800E4E0EABBE3E0EBBBE0E0E7BBE8BBE3
:1000DE00E7EFE4BBE0E0E5BBE1BBE2BBA0E171D042
:1000EE00C89907C0C89BFECF3CD0A0E6B2E058D05E
:1000FE00DA9AC99907C0C99BFECF33D0A6E6B2E003
:10010E004FD0DA98EDCFFFCFAA93E5B3EF70AE2FB5
:10011E00E881E07FEA2BE5BB82E08A95F1F7AA9AA7
:10012E0082E08A95F1F7AA9882E08A95F1F771C07C
:10013E00AA93A881E9DFE881E295E883A881E4DF4C
:10014E0081E18A95F1F765C0AA93E881F0E0E5595F
:10015E00FD4FE081A981AE0FEBDF598048802296DA
:10016E000895A2E058D0ACE0E3DFA1E054D0E0E087
:10017E004E2E5E2E0895AA93A881AA3011F0571420
:10018E0048F0E0E0EA934394A42DDEDFA881AA3084
:10019E0009F43FC05394A89AA881CADFA89839C021
:1001AE00BA93AA931A93A981BA81ED91A983BA83BE
:1001BE001E2FE03019F0A12FDEDFF5CF1881239628
:1001CE000895AA93E4B3E06FE4BBA29AA09AA19A11
:1001DE00AA98A898A9987880E881E058E0936D02D3
:1001EE00E881E054E0936E02A4E1B0E00E941D01AC
:1001FE0017D016D015D0A0E287DF81E28A95F1F7ED
:10020E00A8E296DFA4E094DFA5E892DFA6E090DFF7
:10021E00A8DF219608958CDFA3E0B0E00C941D01B9
:10022E00A0E372DF81E28A95F1F70895109639F016
:10023E00A8958AEF90E00197F1F71197C9F7089505
:00000001FF
