:060000000C942A000C9490
:1000060000000C9400000C9400000C9400000C946A
:1000160000000C9400000C9400000C9400000C945A
:1000260000000C9400000C9400000C9400000C944A
:1000360000000C9400000C9400000C9400000C943A
:1000460000000C9400000C9400000C940000F8943E
:10005600EE27ECBBF1E0FBBFEBBFE5BF8DE0A2E016
:10006600BB27ED938A95E9F780E098E0A0E6ED934B
:100076000197E9F7EFE5EDBFE8E0EEBFC0E6D2E0B5
:100086000C944500E0E0EABBEBBBE7BBE8BBEFEF57
:10009600E4BBE0E0E5BBE1BBE2BBE3B3ED5FE5BBA0
:1000A600A4EFB1E00E945900F8CFFFCF109639F0C7
:1000B600A8958AEF90E00197F1F71197C9F708958F
:00000001FF
