:0E0000000C9437000C9400000C9400000C943B
:10000E0000000C9400000C9400000C9400000C9462
:10001E0000000C9400000C9400000C9400000C9452
:10002E0000000C9400000C9400000C9400000C9442
:10003E0000000C9400000C9400000C9400000C9432
:10004E0000000C9400000000030405060708090ACE
:10005E000B0C0200040054000A006002560000005F
:10006E00F894EE27ECBBF1E0FBBFEBBFE5BF8DE0F4
:10007E00A2E0BB27ED938A95E9F780E098E0A0E631
:10008E00ED930197E9F7E0E6F0E085919591009701
:10009E0061F0A591B59105901590BF01F001059005
:1000AE000D920197E1F7FB01F0CFEFE5EDBFE8E030
:1000BE00EEBFC0E6D2E00C946400E0E0EABBEBBB1E
:1000CE00E7BBE1E0E8BBEFE0E4BBE0E0E5BBE1BBB2
:1000DE00E2BBE0E0E5BBB09917C0B09BFECF442475
:1000EE005524E9E0F0E0E415F50574F0A0E6B2E081
:1000FE00A40DB51DEC91E5BBACE2B1E00E948D0004
:10010E00F20131962F01EDCFE4CFFFCF109639F0EB
:10011E00A8958AEF90E00197F1F71197C9F7089526
:00000001FF
