:060000000C945D000C945D
:1000060000000C9400000C9400000C9400000C946A
:1000160000000C9400000C9400000C9400000C945A
:1000260000000C9400000C9400000C9400000C944A
:1000360000000C9400000C9400000C9400000C943A
:1000460000000C9400000C9400000C940000446F17
:100056006F72732061726520636C6F736564004311
:100066006C6F7365207365617462656C7400446FB0
:100076006F7273207374696C6C206F70656E0052BA
:1000860065616479000080C01100600254000F00B1
:10009600710265000F008002650011008F02740076
:1000A6000F00A00265000600AF0285000200C9022B
:1000B6008C000000F894EE27ECBBF1E0FBBFEBBF31
:1000C600E5BF8DE0A2E0BB27ED938A95E9F780E0D6
:1000D60098E0A0E6ED930197E9F7EEE8F0E0859168
:1000E6009591009761F0A591B59105901590BF0186
:1000F600F00105900D920197E1F7FB01F0CFEFE5D6
:10010600EDBFE8E0EEBFC0E6D2E00C948A00E7EF70
:10011600EABBE0E0EBBBE1E0E7BBE0E0E8BBE4BB69
:10012600E3E0E5BBE0E0E1BBE2BBA0E19CD098994F
:100136001CC0E0E0E8BB989BFECF63D0A0E6B2E02F
:1001460081D0A8EEB3E00E9491015BD0A1E7B2E0B6
:1001560079D0E5EBF2E0FA93EA93A0E8B2E00E94E8
:100166007701A8EEB3E00E949101999906C0999B88
:10017600FECF47D0AFE8B2E065D0E5EBF2E0FA9308
:10018600EA93A0EAB2E00E946301E03011F4999B81
:1001960001C008C0999BFECF34D0AFEAB2E052D07E
:1001A600E1E0E8BBC4CFFFCFAA93EBB3EF70AE2F6D
:1001B600E881E07FEA2BEBBB82E08A95F1F7DA9AD9
:1001C60082E08A95F1F7DA9882E08A95F1F776C0AF
:1001D600AA93A881E9DFE881E295E883A881E4DFB4
:1001E60081E18A95F1F76AC0AA93E881F0E0E753C6
:1001F600FD4FE081A981AE0FEBDF59804880229642
:100206000895A2E00E948401ACE0E2DFA1E00E9432
:100216008401E0E04E2E5E2E0895AA93A881AA30AE
:1002260011F0571448F0E0E0EA934394A42DDCDF84
:10023600A881AA3009F442C05394D89AA881C8DF8D
:10024600D8983CC0BA93AA931A93A981BA81ED9122
:10025600A983BA831E2FE03019F0A12FDEDFF5CF78
:10026600188123960895AA93EAB3E06FEABBD29A5F
:10027600D09AD19ADA98D898D9987880E881E058B7
:10028600E093CB02E881E054E093CC02A4E1B0E035
:100296000E9491010E948A010E948A010E948A019D
:1002A600A0E282DF81E28A95F1F7A8E291DFA4E07D
:1002B6008FDFA5E88DDFA6E08BDFA3DF219608950B
:1002C600BA93AA93E991F991A991B9916D91719116
:1002D600671721F46623D1F7EE270895671BE1F32C
:1002E600E1E008F4E2500895BA93AA93E991F991EE
:1002F600A991B991CD0161916D936623E1F7FC0156
:1003060008950E94EB00A3E0B0E00C949101A0E3F5
:100316000E94D70081E28A95F1F70895109639F088
:10032600A8958AEF90E00197F1F71197C9F708951C
:00000001FF
