:060000000C943F000C947B
:1000060000000C9400000C9400000C9400000C946A
:1000160000000C9400000C9400000C9400000C945A
:1000260000000C9400000C9400000C9400000C944A
:1000360000000C9400000C9400000C9400000C943A
:1000460000000C9400000C9400000C940000EFDFFC
:10005600BF7F3738392F3435362A3132332D433086
:100066003D2B80C00400600254001000640258005A
:100076000200740268000000F894EE27ECBBF1E081
:10008600FBBFEBBFE5BF8DE0A2E0BB27ED938A95F2
:10009600E9F780E098E0A0E6ED930197E9F7EAE654
:1000A600F0E085919591009761F0A591B591059045
:1000B6001590BF01F00105900D920197E1F7FB0144
:1000C600F0CFEFE5EDBFE8E0EEBFC0E6D2E00C947E
:1000D600C2002697E0E0E883E983E4E0EA83E0E013
:1000E600EB83EC83ED83AC81BD8114970CF045C0A6
:1000F600EC81FD81E05AFD4FE081E5BBA4E1B0E073
:100106000E945401989905C0E0E0EA83EB83989B2E
:10011600FECF999906C0E1E0F0E0EA83FB83999B64
:10012600FECF9A9906C0E2E0F0E0EA83FB839A9B51
:10013600FECF9B9906C0E3E0F0E0EA83FB839B9B3E
:10014600FECFAA81BB81149791F0EC81FD810E94BC
:100156005E01AA81BB81EA0FFB1FE883F983EC5994
:10016600FD4FA08155D0E4E0F0E0EA83FB83EC810B
:10017600FD813196EC83FD83B6CF2696AACFE7EFB5
:10018600EABBE0E0EBBBE7BBE8BBE0EFE4BBEFE0DC
:10019600E5BBE0E0E1BBE2BBA0E14ED09ADFFFCFDA
:1001A600FFCFAA93EBB3EF70AE2FE881E07FEA2B87
:1001B600EBBB82E08A95F1F7DA9A82E08A95F1F74D
:1001C600DA9882E08A95F1F75FC0AA93A881E9DF01
:1001D600E881E295E883A881E4DF81E18A95F1F779
:1001E60053C0AA93E881F0E0EC58FD4FE081A98165
:1001F600AE0FEBDF5980488022960895A2E046D0E4
:10020600ACE0E3DFA1E042D0E0E04E2E5E2E0895A2
:10021600AA93A881AA3011F0571440F0E0E0EA93BF
:100226004394A42DDEDFA881AA3071F15394D89AA5
:10023600A881CBDFD89828C0AA93EAB3E06FEABBBF
:10024600D29AD09AD19ADA98D898D9987880E881B3
:10025600E058E0937602E881E054E0937702A4E167
:10026600B0E00E94540117D016D015D0A0E299DF55
:1002760081E28A95F1F7A8E2A8DFA4E0A6DFA5E867
:10028600A4DFA6E0A2DFBADF219608959EDFA3E0F1
:10029600B0E00C945401A0E384DF81E28A95F1F783
:1002A6000895109639F0A8958AEF90E00197F1F736
:1002B6001197C9F70895EE0FFF1FEE0FFF1F089560
:00000001FF
