:0C0000000C9454000C9481000C94C5007A
:10000C000C9400000C9400000C9400000C94000064
:10001C000C9400000C9400000C9400000C94000054
:10002C000C9400000C9400000C9400000C94000044
:10003C000C9400000C9400000C9400000C94000034
:10004C000C9400000C9400007475726E206C656644
:10005C007400773D25302E31666E2F6D20643D2562
:10006C0069007475726E207269676874000080C0D4
:10007C002D4E414E000001002D4E414E00494E4682
:10008C0000000A00600254000B006A026E000200BD
:10009C00A1027A000100A50282000000F894EE276C
:1000AC00ECBBF1E0FBBFEBBFE5BF8DE0A2E0BB27F3
:1000BC00ED938A95E9F780E098E0A0E6ED9301973F
:1000CC00E9F7EEE8F0E085919591009761F0A59144
:1000DC00B59105901590BF01F00105900D92019717
:1000EC00E1F7FB01F0CFEFE5EDBFE8E0EEBFC0E6D6
:1000FC00D2E00C9414010E94280611F4E1E0E5BB57
:10010C00E5B3E23011F4E2E0E5BBE5B3E43011F421
:10011C00E4E0E5BBE5B3E83011F4E8E0E5BBE5B3BA
:10012C00E03111F4E0E1E5BB809905C0809BFECF86
:10013C00F20174962F01819905C0819BFECFF201CB
:10014C0074972F01E5B3E13011F4E0E1E5BBE0E099
:10015C00EA93A1E0A2D0A0E6B2E0CDD0E5B3F0E006
:10016C00F595E795E5BBD2010E9467070E9438061A
:10017C00839903C0839BFECF01C0D6CF41C00E94A0
:10018C00280611F4E1E0E5BBE5B3E23011F4E2E05E
:10019C00E5BBE5B3E43011F4E4E0E5BBE5B3E830EE
:1001AC0011F4E8E0E5BBE5B3E03111F4E0E1E5BBC7
:1001BC00809905C0809BFECFF20174962F01819926
:1001CC0005C0819BFECFF20174972F01E5B3E0319E
:1001DC0011F4E1E0E5BBE0E0EA93A1E05ED0AAE631
:1001EC00B2E089D0D2010E946707E5B3EE0FE5BB00
:1001FC000E943806829903C0829BFECF01C0D8CFE3
:10020C00E991EFBFF991E991B991A99199918991EE
:10021C0079916991F990199009901895E7EFEABBDB
:10022C00E0E0EBBBE7BBE8BBEFE0E4BBE1E0E5BB48
:10023C00E0E0E1BBEFE3E2BBEBB7E06CEBBFEAE085
:10024C00E5BFE0E0E4BFE0ECEABFA0E165D0789464
:10025C00E8ECF0E02F01FFCFFFCFAA93EBB3EF70E8
:10026C00AE2FE881E07FEA2BEBBB82E08A95F1F7B9
:10027C00DA9A82E08A95F1F7DA9882E08A95F1F7BA
:10028C0076C0AA93A881E9DFE881E295E883A8818A
:10029C00E4DF81E18A95F1F76AC0AA93E881F0E086
:1002AC00EF55FD4FE081A981AE0FEBDF79806880BF
:1002BC0022960895A2E00E946606ACE0E2DFA1E07F
:1002CC000E946606E0E06E2E7E2E0895AA93A88109
:1002DC00AA3011F0791448F0E0E0EA936394A62D6B
:1002EC00DCDFA881AA3009F442C07394D89AA881A3
:1002FC00C8DFD8983CC0BA93AA931A93A981BA8143
:10030C00ED91A983BA831E2FE03019F0A12FDEDF07
:10031C00F5CF188123960895AA93EAB3E06FEABB50
:10032C00D29AD09AD19ADA98D898D9989880E881AC
:10033C00E058E093A302E881E054E093A402A4E126
:10034C00B0E00E9467070E946C060E946C060E9437
:10035C006C06A0E282DF81E28A95F1F7A8E291DFD8
:10036C00A4E08FDFA5E88DDFA6E08BDFA3DF21966D
:10037C000895BA93AA931A930A93AA81BB811296F1
:10038C000E94AF09309729F1AA81BB8114960E9473
:10039C00AF098F01309761F00230E0E01E0780F06A
:1003AC00F80131978F01AA81BB811496ED93FC93D0
:1003BC00AA81BB8112960E9473063197AC81A083EF
:1003CC00AA81BB810E94AF09FF2312F00E94730621
:1003DC0006C0AA81BB81EFEFFFEFED93FC9319816F
:1003EC000881259608950E947906E0E8EA83EFE3F8
:1003FC00EB830E94EA09EE85FF85EF3FAFEFFA072A
:10040C0049F4E885F985FA93EA93ACE7B0E00E94E9
:10041C001905B7C0EF3FAFE7FA0749F4E885F9854E
:10042C00FA93EA93ADE7B0E00E941905AAC0AB8538
:10043C00A73010F0E6E0EB871B85E12F1150E03080
:10044C0019F00E948006F9CFEC85FD856E857F85BD
:10045C000E94E40921F430E00E9480062DC03B8507
:10046C000E948F0609F008F40BC00E9480060E94BF
:10047C008F0628F00E949A060E949F06F8CF0DC0A6
:10048C000E948F0640F40E949A060E94AB060E94BE
:10049C00B2063150F5CF0E948006EC85FD856E8545
:1004AC007F850E94B7060E94B2060E948F0620F03C
:1004BC000E949A060E949F0610E0EB85E117A8F1B6
:1004CC00AC81BD818E819F810E94BE060E94B706C1
:1004DC00DF01CB010E947005EC83FD836E837F836B
:1004EC000E949A060E94B5080E94A4070E2F0E9433
:1004FC00C5060E94CC06FF27662777270E94DD07DA
:10050C00AC81BD818E819F810E9467080E949A06F2
:10051C000E94D1060E94B206E12F1F5FE03069F6FF
:10052C000E94C506EEE2EC93C8CF0E94D606319726
:10053C00AA85A08330302CF43195A885B985EDE2DD
:10054C0003C0A885B985EBE2EC930E94D6060E9405
:10055C00D6063197BF01A32FEAE00E944309E05D64
:10056C00DB01EC930E94D6063197BF01A32FEAE082
:10057C000E948509E05DDB01EC93A885B985E0E07C
:10058C00EC930E94F10960960895BA93AA93EF97A1
:10059C0061970E94E80910E0FE01E85AFF4F0190B4
:1005AC00F081E02DE887F987FE01EA5AFF4F0190B0
:1005BC00F081E02DEE83FF83AE81BF81E0E0F0E0BF
:1005CC00ED93FC93DE01A45ABF4F0E947306319742
:1005DC00E4912E2FE03009F4E9C1E12FE03039F439
:1005EC00253211F411E002C00E94DC06DEC1E130BC
:1005FC00C1F4253219F40E94DC06D6C112E0E0E009
:10060C00ED8B00E02D3211F401E0CFC12B3219F447
:10061C00EBE2ED8BCAC1203219F4E0E2ED8BC5C1DF
:10062C0002C0E23039F450E013E0203311F40068DA
:10063C00BCC102C0E33091F4203310F02A3308F02F
:10064C0007C0AAE05A9F502DE22FE0535E0FADC1B8
:10065C0040E02E3211F414E0A8C10FC0E43099F43C
:10066C00203310F02A3308F008C00062AAE04A9F39
:10067C00402DE22FE0534E0F98C12C3619F4026036
:10068C0015E093C103C0E53009F08FC1E22FE336CA
:10069C0059F40E94E3060E94EA060E94E306A48134
:1006AC00AA930E94F10680C1E53411F0E53609F4F5
:1006BC0003C0E63609F048C0FE017696EE87FF8748
:1006CC000E94F7060E94B3090E94FE060E940307CF
:1006DC00AD85AA2332F0AD89AB3259F0A03281F04E
:1006EC0017C00E9405070E9471070E94FE06EDE2EA
:1006FC00ED8B07FF05C0ED89EA930E94F10608C057
:10070C00EE85FF853196EE87FF873197AD89A08303
:10071C0005FF46E0263651F40E9405070E94CD09DC
:10072C004A93AB89BC890E94870509C00E940507C2
:10073C000E94CD094A932A93AC89BD8954DEFE01EF
:10074C0076960E940A071EC0E33739F40E9403070D
:10075C000E9412070E940A070EC0E037C1F40E94E3
:10076C0003070E941207EE87FF87AE85BF850E94A4
:10077C0032051E2F08600F77403011F0411708F03A
:10078C0001C0142F40E0E0E0EC8B30E06DC0E436AB
:10079C0011F0E93611F4046002C0E537A1F4EAE087
:1007AC00EC8B01FF08C0E0E0FAEC6AE97BE30E9405
:1007BC0017071AE022C0E0E1F7E260E070E00E9467
:1007CC00170715E01AC0E83511F4086003C0E837C4
:1007DC0009F0EAC0E0E1EC8B01FF08C0E0E0F0E0DA
:1007EC0060E070E10E94170718E007C0E0E0F0E15C
:1007FC0060E070E00E94170714E0403011F00F77B2
:10080C0001C041E001FF08C00E9403070E94F706E7
:10081C0014960E94B3090FC002FF07C00E94030781
:10082C000E9412070E94300906C00E9403070E9412
:10083C00120766277727EA87FB876C877D8702FF7D
:10084C0012C0AD85AA2342F40E9405070E9422091A
:10085C000E94FE06EDE2ED8BED89E03019F01F5F92
:10086C004F5F01C00B7F342F00FD14C0151710F41F
:10087C00351708F00FC007FF08C002FF04C00B7F3C
:10088C002D89115001C020E301C020E20E94DC063A
:10089C005150ECCF141790F4006102FF06C00E9477
:1008AC001C0709F0515011504150E0E3EA930E94AB
:1008BC00F106503009F051504150ECCF312FEC89FA
:1008CC00E030B9F43030A1F003FF06C0EE85FF85AF
:1008DC002591EE87FF8705C0AE85BF852D91AE872C
:1008EC00BF870E94DC06503009F051503150EACFDE
:1008FC0051C00E942E070E9460092E2F2A3030F022
:10090C0003FF02C0295C01C0295A01C0205D04FD0F
:10091C0021C0213360F4A889B9898A899B89A130C7
:10092C00E0E0BE07E0E08E07E0E09E0709F40BC0B4
:10093C00431740F4531710F000FF01C010C020E221
:10094C0007FF08C020E3006102FF04C00E941C07DF
:10095C0009F051500E94DC06503009F051503150D2
:10096C000E942E070E9491090E94FE06EC89A8891C
:10097C00B9898A899B89FF27662777270E94600996
:10098C000E941707E889F9896A897B890E94E40922
:10099C0009F0AFCF00FF08C0503031F05150E0E209
:1009AC00EA930E94F106F8CF10E00CCEAE81BF8125
:1009BC000E94AF090E94EF09EF966F960895FF927F
:1009CC00F82E26970E94EA090E943707309719F4EF
:1009DC00EFEFFFEF23C0DE0116960E941A098D017E
:1009EC000E943707EE83FF83E0E0E887E987DE01AA
:1009FC001A960E941A090E94AF09FA93EA931A9365
:100A0C000A93EFEBF1E0FA93EA93DE011A96BDDD5F
:100A1C009F01AE81BF81E0E0EC93F9010E94F109E6
:100A2C002A96FF900895BA93AA93E991F991A99106
:100A3C00B991CD0105900D920020E1F7FC010895CC
:100A4C00BA93AA93A991B991EE27FF276D916623CA
:100A5C0011F03196FBCF0895BA93AA93AA27BB271E
:100A6C00E991F9910590002011F01196FBCFFD0151
:100A7C0008950E94D2097B816A81F981E88177FB14
:100A8C00770F67FD7160972F9E5781F078F0983142
:100A9C0090F4AA27BB27882708948795B795A79524
:100AAC009A95D1F7EA23FB23682305C0E8947727AE
:100ABC00EE27FF2766276F77769508F4606877F93D
:100ACC00A991B99189919991EA17FB076807790760
:100ADC0097FB08950E94D2090E94C3090E943F050A
:100AEC000E94C80919F40E94BE0909C0E6F70E94C9
:100AFC00BE09A0E0B0E080E89FE30E9410082496B5
:100B0C000895F1D0E0E0EA83EFE3EB831A930A93C4
:100B1C00EB85FC85EF3FAFEFFA0731F4A9D1A4E8E0
:100B2C00B0E00E9419058AC0EF3FAFE7FA0731F435
:100B3C009FD1A5E8B0E00E94190580C0AC85AA231E
:100B4C0052F4E985FA856B857C850E94710795D1F5
:100B5C0099D1EDE2EC93A885A73010F0E6E0E88798
:100B6C001885E12F1150E03021F093D101D196D1AD
:100B7C00F8CF99D10E94170880D110E0E0E0F0E0A6
:100B8C0060E87FE38BD18FD10E94FA0868F081D1A5
:100B9C00DCD084D11F5F173230F06AD1A9E8B0E005
:100BAC000E9419054BC0EFCF103021F46BD1E0E35C
:100BBC00EC9320C0E12F1150E030E1F06AD1D8D095
:100BCC00D0D0DF01CB010E94700568D16CD10E949E
:100BDC00B5080E94A4070E2F55D1D8D0F0E059D1FA
:100BEC000E9430090E94DD070E94670865D1D3D0AE
:100BFC0044D1E0CFE885E030E9F044D1EEE2EC936B
:100C0C00E885E150E887EF5FA9F056D19ED035D149
:100C1C00E985FA856B857C850E94A4070E2F32D15D
:100C2C00B5D0F0E049D10E9430090E94DD07B3D065
:100C3C0024D1E6CFAE81BF81E0E0EC93198108812D
:100C4C002D9608950A921A92FA926A937A938A933D
:100C5C009A93AA93BA93EA93FA93EFB7EA93E5B30C
:100C6C00E1300895F201A8E9BAE30E945B09A5E717
:100C7C00B2E00E9430090E94DD070E94B909E9E741
:100C8C00F2E0FA93EA93EEE5F0E0FA93EA93E0915E
:100C9C007502F091760260917702709178020E9451
:100CAC00CD09F2010E9430090E94CD0988E00E9412
:100CBC00E5042C960E946001A9E7B2E00C94810136
:100CCC000E944701A3E0B0E00C946707A0E30E94E8
:100CDC00330181E28A95F1F70895ED91FD913196FA
:100CEC00FE93EE930895BA93AA932497E0E0E883D9
:100CFC00E9830895AC81BD818E819F81E0E0F0E0B5
:100D0C0060E271E40E946708EC83FD836E837F834D
:100D1C000895EC81FD816E817F81AC85BD858E85CA
:100D2C009F850E94FA080895AC85BD858E859F85A8
:100D3C000895EDECFCEC6CEC7DE30E946708EC870D
:100D4C00FD876E877F873F5F0895E0E0F0E060E20B
:100D5C0071E40E9467080895EC87FD876E877F8792
:100D6C000895A0E0B0E080E09FE30E94170808958A
:100D7C00EDECFCEC6CEC7DE30E9467080895A88513
:100D8C00B9851196A887B98711970895E02FE05D72
:100D9C00EC93E02F08950E94D7090E941008089543
:100DAC00E885F9853196E887F98708952A93AF810C
:100DBC00B885E985FA8509950895FE01E65AFF4F35
:100DCC000190F081E02D08953497DE01A65ABF4FB3
:100DDC00ED93FC930895AF81B885E985FA85099563
:100DEC000895DE01A65ABF4F0D90BC91A02D089519
:100DFC00EA87FB876C877D870895DFDFE5CFEA857F
:100E0C00FB856C857D850895EE87FF87AE85BF8554
:100E1C000E9426051E2F0895E4DF14960E94AF0948
:100E2C000895E88BF98B6A8B7B8B08950B7FED898A
:100E3C00EA93DE01A95ABF4F0D90BC91A02DFE0183
:100E4C00E75AFF4F0190F081E02D0995503008953D
:100E5C00E889F9896A897B89AA85BB858C859D85FA
:100E6C000895DE011C960E941A090E94AF0908958C
:100E7C00EE81FF81FA93EA930895E987FA876B87ED
:100E8C007C870895AE81BF811196AE83BF83119785
:100E9C000895AA81BB818C819D810895EA83FB838F
:100EAC006C837D830895EA81FB816C817D81A985AA
:100EBC00BA858B859C850895A985BA858B859C857B
:100ECC000895109639F0A8958AEF90E00197F1F704
:100EDC001197C9F7089530976040704009F0705829
:100EEC000895552342F4503811F4E0FF04C03196B4
:100EFC00691F791F6BF050E8572711F45F93CFC02F
:100F0C005F3F31F0660F000C57956795752F08956C
:100F1C005F9300200AF0CFC0C8C050E8192E1522EC
:100F2C00880F991F9527550F879550E8072E052296
:100F3C00660F771F7527550F67950895689401C044
:100F4C00E8945F93F2DF703818F07F3F08F4A7C085
:100F5C0056E1571BAAF4519558300EF4593030F025
:100F6C00EFEFFFEF6FEF7FE777F91AC07727552385
:100F7C00B9F0EE0FFF1F661F771F5A95D1F710C0FF
:100F8C007727583028F0EF2FF62F672F5850F9CFCE
:100F9C00552331F076956795F795E7955A95D1F7E6
:100FAC0000200AF449D15F910895689401C0E89437
:100FBC00309760407040B1F0002426F0772312F493
:100FCC0000943AD1172E7EE1112032F07A95EE0F73
:100FDC00FF1F661F111CF9CFEF2FF62F612D5F93AA
:100FEC008ADF5F9108954F93AF01FD01DA01AB01E8
:100FFC00BC01CA01402D012C142E4F910895EA0F0B
:10100C00FB1F681F0895E095F0956095EF5FFF4F0B
:10101C006F4F08955F9381DF903871F150E815267A
:10102C0004C05F937ADF903839F1703821F1572F73
:10103C00591B2BF112F4D7DFFACF583118F0AA272D
:10104C00BB278827583028F0AB2FB82F882758504B
:10105C00F9CF552329F08695B795A7955A95D9F7C9
:10106C00502D512572F0CBDF38F46795F795E79545
:10107C00739513F420C0B7DF3EDF5F910895D8F766
:10108C00FBCFEA1BFB0B680B51F010F40094BBDF99
:10109C00662392F3EE0FFF1F661F7A95CBF7EE27B0
:1010AC00FF27662777275F910895EFEFFFEF6FE734
:1010BC007FEF5F910895EFEFFFEF6FE77FE75F91B1
:1010CC0008955F932ADF703851F3903841F301246F
:1010DC000894791F23F41CF300203AF3ECCF0F9201
:1010EC001F932F933F934F93112722279927689F84
:1010FC00A0018F9F302D410D591F6B9F300D411D4D
:10110C00591F8E9F27D0BF9F25D06A9F23D0BE9F8B
:10111C001DD0AF9F1BD0AE9F110D291F391F491F2A
:10112C00591FE32FF42F652F522F4F913F912F9181
:10113C001F910F9066232AF0550FEE1FFF1F661F9D
:10114C0002C073954BF2CDDE5F910895100D211DF9
:10115C00391F02C0200D311D491F591F08955F937F
:10116C00DCDE703821F411200AF49FCFA4CF903824
:10117C0009F495CF01240894970B1BF4D4F30020A9
:10118C00F3CF792F1F932F933F934F931124112754
:10119C00222733274427552790E2AE17BF0786072F
:1011AC00410730F0AE1BBF0B860B410B089401C0FE
:1011BC008894551F221F331F111CAA1FBB1F881F89
:1011CC00441F9A9551F7F901612D4F913F912F9141
:1011DC001F91662332F0550FEE1FFF1F661F7A9585
:1011EC0043F27FDE5F91089599239AF0772342F0C2
:1011FC00971748F029F4AE17BF07860720F031F097
:10120C0098948894089598940894089518948894C0
:10121C0008957723C2F7971798F3A9F7EA17FB07F6
:10122C00680788F399F3ECCF0024AF0DB01D089537
:10123C00F195E195F0400895F09560957095E195E4
:10124C00FF4F6F4F7F4F0895FE2FFF0FFF0B6F2F38
:10125C007F2F08956F2F660F660B762F089500244D
:10126C0098E0AA0F001C0E1A10F40E0E01C0A1601B
:10127C009A95B9F7EA2FA02D089551D0F0DF0EF40E
:10128C00E19508950024112490E1AA0FBB1F001CC6
:10129C00111C0E1A1F0A18F40E0E1F1E01C0A1609D
:1012AC009A9599F7FD01D001089545D0EBDF0EF426
:1012BC00BFDF08953F934F935F930024112444277D
:1012CC00552730E2AA0FBB1F881F991F001C111C49
:1012DC00441F551F0E1A1F0A460B570B28F40E0EEF
:1012EC001F1E461F571F01C0A1603A9559F7FD01FB
:1012FC00BC01D001CA015F914F913F910895E894D0
:10130C00A7FF02C0A1956894E7FDE195A8DFEA2F3D
:10131C000EF4E1950895CEDFFD01BC010895E8942B
:10132C00E7FF02C0E1956894A7FF04C0A19500F8FF
:10133C00039400FA0895E894F7FF02C079DF6894EB
:10134C00B7FF06C0A095B095119600F8039400FA6B
:10135C000895ED91FC9111970895ED91FD916D918A
:10136C007C9113970895ED93FD936D937C93089561
:10137C00E881F9816A817B810895A881B9818A818C
:10138C009B810895E883F9836A837B8308957A931C
:10139C006A93FA93EA9308959A938A93BA93AA93C9
:1013AC000895182E862F612D192E972F712D1B2E17
:1013BC00BF2FF12D1A2EAE2FE12D089530976040DE
:1013CC00704008955A934A933A932A931A930A9326
:1013DC0008955D814C813B812A8119810881089592
:00000001FF
