:100000000C944D000C9400000C9400000C94000023
:100010000C9400000C9400000C9400000C94000060
:100020000C9400000C9400000C9400000C94000050
:100030000C9400000C9400000C9400000C94000040
:100040000C9400000C9400000C9400000C94000030
:100050000C94000074313D25302E32662074323D00
:1000600025302E32660074333D25302E32662074E2
:10007000343D25302E32660080C02D4E414E0000AA
:1000800001002D4E414E00494E46000002009802EC
:10009000780001009C0280000000F894EE27ECBB81
:1000A000F1E0FBBFEBBFE5BF8DE0A2E0BB27ED9326
:1000B0008A95E9F780E098E0A0E6ED930197E9F7EB
:1000C000ECE8F0E085919591009761F0A591B591EC
:1000D00005901590BF01F00105900D920197E1F791
:1000E000FB01F0CFEFE5EDBFE8E0EEBFC0E6D2E008
:1000F0000C948700AA93E881E7B983E08A95F1F729
:10010000369A349BFECF349AE4B1F5B143C1E0E0B6
:10011000EABBEBBBE7E8E7BBE0E0E8BBE7EFE4BB4B
:10012000E0E0E5BBE1BBE2BBE7B9E4EAE6B9E0E069
:10013000E0BFA0E104D1A0E0DDDFA0E6B2E00E94D4
:100140003506A1E0D7DFA4E6B2E00E943506A2E0C2
:10015000D1DFA8E6B2E00E943506A3E0CBDFACE633
:10016000B2E00E943506A0916002B09161028091D8
:100170006202909163020E943C06E0936002F09359
:1001800061026093620270936302A0916402B09175
:10019000650280916602909167020E943C06E0939E
:1001A0006402F09365026093660270936702A09107
:1001B0006802B091690280916A0290916B020E947C
:1001C0003C06E0936802F093690260936A027093C0
:1001D0006B02A0916C02B0916D0280916E029091C1
:1001E0006F020E943C06E0936C02F0936D026093F4
:1001F0006E0270936F02E0E7F2E0FA93EA93E4E5AF
:10020000F0E0FA93EA93E0916002F091610260916C
:100210006202709163020E948709E0916402F0918A
:10022000650260916602709167020E944306E4E8ED
:10023000F2E0FA93EA93E6E6F0E0FA93EA93E091CB
:100240006802F091690260916A0270916B020E94EB
:100250008709E0916C02F0916D0260916E027091DD
:100260006F020E94430639D0A0E7B2E057D0E0E029
:10027000EA93A1E025D0A4E8B2E050D05CCFFFCF54
:10028000AA93E5B3EF70AE2FE881E07FEA2BE5BBE0
:1002900082E08A95F1F7AA9A82E08A95F1F7AA9806
:1002A00082E08A95F1F776C0AA93A881E9DFE88118
:1002B000E295E883A881E4DF81E18A95F1F76AC0DD
:1002C000AA93E881F0E0E856FD4FE081A981AE0FE6
:1002D000EBDF5980488022960895A2E00E944A06EA
:1002E000ACE0E2DFA1E00E944A06E0E04E2E5E2E86
:1002F0000895AA93A881AA3011F0571448F0E0E0BD
:10030000EA934394A42DDCDFA881AA3009F442C00B
:100310005394A89AA881C8DFA8983CC0BA93AA931E
:100320001A93A981BA81ED91A983BA831E2FE03077
:1003300019F0A12FDEDFF5CF188123960895AA9337
:10034000E4B3E06FE4BBA29AA09AA19AAA98A898F5
:10035000A9987880E881E058E0939A02E881E05417
:10036000E0939B02A4E1B0E00E944B070E9450067C
:100370000E9450060E945006A0E282DF81E28A9528
:10038000F1F7A8E291DFA4E08FDFA5E88DDFA6E01A
:100390008BDFA3DF21960895BA93AA931A930A9349
:1003A000AA81BB8112960E946909309729F1AA811E
:1003B000BB8114960E9469098F01309761F0023069
:1003C000E0E01E0780F0F80131978F01AA81BB8120
:1003D0001496ED93FC93AA81BB8112960E94570656
:1003E0003197AC81A083AA81BB810E946909FF2358
:1003F00012F00E94570606C0AA81BB81EFEFFFEF03
:10040000ED93FC9319810881259608950E945D065D
:10041000E0E8EA83EFE3EB830E94A409EE85FF8521
:10042000EF3FAFEFFA0749F4E885F985FA93EA93CD
:10043000AAE7B0E00E942605B7C0EF3FAFE7FA0792
:1004400049F4E885F985FA93EA93ABE7B0E00E94B6
:100450002605AAC0AB85A73010F0E6E0EB871B8528
:10046000E12F1150E03019F00E946406F9CFEC85BD
:10047000FD856E857F850E949E0921F430E00E94F3
:1004800064062DC03B850E94730609F008F40BC07A
:100490000E9464060E94730628F00E947E060E9455
:1004A0008306F8CF0DC00E94730640F40E947E06BA
:1004B0000E948F060E9496063150F5CF0E94640676
:1004C000EC85FD856E857F850E949B060E949606C1
:1004D0000E94730620F00E947E060E94830610E0B0
:1004E000EB85E117A8F1AC81BD818E819F810E94CF
:1004F000A2060E949B06DF01CB010E947D05EC83D2
:10050000FD836E837F830E947E060E9499080E946D
:1005100088070E2F0E94A9060E94B006FF276627B3
:1005200077270E94C107AC81BD818E819F810E9487
:100530004B080E947E060E94B5060E949606E12F97
:100540001F5FE03069F60E94A906EEE2EC93C8CF87
:100550000E94BA063197AA85A08330302CF43195D9
:10056000A885B985EDE203C0A885B985EBE2EC93D7
:100570000E94BA060E94BA063197BF01A32FEAE093
:100580000E942309E05DDB01EC930E94BA063197DB
:10059000BF01A32FEAE00E944D09E05DDB01EC936F
:1005A000A885B985E0E0EC930E94AB0960960895B8
:1005B000BA93AA93EF9761970E94A20910E0FE01F7
:1005C000E85AFF4F0190F081E02DE887F987FE019E
:1005D000EA5AFF4F0190F081E02DEE83FF83AE8158
:1005E000BF81E0E0F0E0ED93FC93DE01A45ABF4F41
:1005F0000E9457063197E4912E2FE03009F4E9C1AB
:10060000E12FE03039F4253211F411E002C00E94EC
:10061000C006DEC1E130C1F4253219F40E94C006E3
:10062000D6C112E0E0E0ED8B00E02D3211F401E0E4
:10063000CFC12B3219F4EBE2ED8BCAC1203219F491
:10064000E0E2ED8BC5C102C0E23039F450E013E0C6
:10065000203311F40068BCC102C0E33091F42033B0
:1006600010F02A3308F007C0AAE05A9F502DE22F5D
:10067000E0535E0FADC140E02E3211F414E0A8C18A
:100680000FC0E43099F4203310F02A3308F008C08A
:100690000062AAE04A9F402DE22FE0534E0F98C11E
:1006A0002C3619F4026015E093C103C0E53009F05F
:1006B0008FC1E22FE33659F40E94C7060E94CE068E
:1006C0000E94C706A481AA930E94D50680C1E53482
:1006D00011F0E53609F403C0E63609F048C0FE0122
:1006E0007696EE87FF870E94DB060E946D090E94C6
:1006F000E2060E94E706AD85AA2332F0AD89AB324F
:1007000059F0A03281F017C00E94E9060E945507F7
:100710000E94E206EDE2ED8B07FF05C0ED89EA934A
:100720000E94D50608C0EE85FF853196EE87FF87CB
:100730003197AD89A08305FF46E0263651F40E942B
:10074000E9060E9487094A93AB89BC890E949405F7
:1007500009C00E94E9060E9487094A932A93AC893E
:10076000BD8954DEFE0176960E94EE061EC0E33778
:1007700039F40E94E7060E94F6060E94EE060EC0BB
:10078000E037C1F40E94E7060E94F606EE87FF8775
:10079000AE85BF850E943F051E2F08600F77403051
:1007A00011F0411708F001C0142F40E0E0E0EC8B9D
:1007B00030E06DC0E43611F0E93611F4046002C097
:1007C000E537A1F4EAE0EC8B01FF08C0E0E0FAECC9
:1007D0006AE97BE30E94FB061AE022C0E0E1F7E24F
:1007E00060E070E00E94FB0615E01AC0E83511F4E5
:1007F000086003C0E83709F0EAC0E0E1EC8B01FFD4
:1008000008C0E0E0F0E060E070E10E94FB0618E064
:1008100007C0E0E0F0E160E070E00E94FB0614E059
:10082000403011F00F7701C041E001FF08C00E9485
:10083000E7060E94DB0614960E946D090FC002FFB6
:1008400007C00E94E7060E94F6060E94100906C033
:100850000E94E7060E94F60666277727EA87FB874D
:100860006C877D8702FF12C0AD85AA2342F40E94E7
:10087000E9060E9402090E94E206EDE2ED8BED8995
:10088000E03019F01F5F4F5F01C00B7F342F00FD78
:1008900014C0151710F4351708F00FC007FF08C073
:1008A00002FF04C00B7F2D89115001C020E301C05D
:1008B00020E20E94C0065150ECCF141790F4006162
:1008C00002FF06C00E94000709F05150115041502C
:1008D000E0E3EA930E94D506503009F051504150B0
:1008E000ECCF312FEC89E030B9F43030A1F003FFC8
:1008F00006C0EE85FF852591EE87FF8705C0AE8592
:10090000BF852D91AE87BF870E94C006503009F089
:1009100051503150EACF51C00E9412070E9428095D
:100920002E2F2A3030F003FF02C0295C01C0295A63
:1009300001C0205D04FD21C0213360F4A889B9897C
:100940008A899B89A130E0E0BE07E0E08E07E0E005
:100950009E0709F40BC0431740F4531710F000FF33
:1009600001C010C020E207FF08C020E3006102FFC1
:1009700004C00E94000709F051500E94C006503088
:1009800009F0515031500E9412070E9459090E94EB
:10099000E206EC89A889B9898A899B89FF2766279D
:1009A00077270E9428090E94FB06E889F9896A894D
:1009B0007B890E949E0909F0AFCF00FF08C050302C
:1009C00031F05150E0E2EA930E94D506F8CF10E0F2
:1009D0000CCEAE81BF810E9469090E94A909EF96E1
:1009E0006F960895FF92F82E26970E94A4090E9400
:1009F0001B07309719F4EFEFFFEF23C0DE011696C7
:100A00000E94FE088D010E941B07EE83FF83E0E039
:100A1000E887E987DE011A960E94FE080E946909AC
:100A2000FA93EA931A930A93ECECF1E0FA93EA93BF
:100A3000DE011A96BDDD9F01AE81BF81E0E0EC933F
:100A4000F9010E94AB092A96FF900895BA93AA93E0
:100A5000E991F991A991B991CD0105900D920020EC
:100A6000E1F7FC010895BA93AA93A991B991EE27F1
:100A7000FF276D91662311F03196FBCF0895BA934D
:100A8000AA93AA27BB27E991F9910590002011F0BC
:100A90001196FBCFFD0108950E948C097B816A812C
:100AA000F981E88177FB770F67FD7160972F9E577B
:100AB00081F078F0983190F4AA27BB278827089412
:100AC0008795B795A7959A95D1F7EA23FB236823D5
:100AD00005C0E8947727EE27FF2766276F7776957E
:100AE00008F4606877F9A991B99189919991EA1709
:100AF000FB076807790797FB08950E948C090E94FD
:100B00007D090E944C050E94820919F40E9478090F
:100B100009C0E6F70E947809A0E0B0E080E89FE312
:100B20000E94F40724960895C8D0E0E0EA83EFE33A
:100B3000EB831A930A93EB85FC85EF3FAFEFFA073F
:100B400031F480D1A2E8B0E00E9426058AC0EF3FD0
:100B5000AFE7FA0731F476D1A3E8B0E00E942605AA
:100B600080C0AC85AA2352F4E985FA856B857C8523
:100B70000E9455076CD170D1EDE2EC93A885A730A7
:100B800010F0E6E0E8871885E12F1150E03021F001
:100B90006AD1D8D06DD1F8CF70D10E94FB0757D160
:100BA00010E0E0E0F0E060E87FE362D166D10E940F
:100BB000DE0868F058D1B3D05BD11F5F173230F038
:100BC00041D1A7E8B0E00E9426054BC0EFCF10301E
:100BD00021F442D1E0E3EC9320C0E12F1150E0304A
:100BE000E1F041D1AFD0A7D0DF01CB010E947D055C
:100BF0003FD143D10E9499080E9488070E2F2CD123
:100C0000AFD0F0E030D10E9410090E94C1070E94CD
:100C10004B083CD1AAD01BD1E0CFE885E030E9F009
:100C20001BD1EEE2EC93E885E150E887EF5FA9F095
:100C30002DD175D00CD1E985FA856B857C850E9414
:100C400088070E2F09D18CD0F0E020D10E94100926
:100C50000E94C1078AD0FBD0E6CFAE81BF81E0E021
:100C6000EC93198108812D960895662777270E94B5
:100C7000C1070E9473090895EAEAF1EF62E070E4A7
:100C80000E94990808950E94870988E00E94F20452
:100C90002C9608950E945401A3E0B0E00C944B07F9
:100CA000A0E30E94400181E28A95F1F70895ED9159
:100CB000FD913196FE93EE930895BA93AA932497EB
:100CC000E0E0E883E9830895AC81BD818E819F8156
:100CD000E0E0F0E060E271E40E944B08EC83FD8309
:100CE0006E837F830895EC81FD816E817F81AC8569
:100CF000BD858E859F850E94DE080895AC85BD85E3
:100D00008E859F850895EDECFCEC6CEC7DE30E94F4
:100D10004B08EC87FD876E877F873F5F0895E0E093
:100D2000F0E060E271E40E944B080895EC87FD87D3
:100D30006E877F870895A0E0B0E080E09FE30E9487
:100D4000FB070895EDECFCEC6CEC7DE30E944B0896
:100D50000895A885B9851196A887B9871197089530
:100D6000E02FE05DEC93E02F08950E9491090E942E
:100D7000F4070895E885F9853196E887F98708959D
:100D80002A93AF81B885E985FA8509950895FE0112
:100D9000E65AFF4F0190F081E02D08953497DE016F
:100DA000A65ABF4FED93FC930895AF81B885E985AE
:100DB000FA8509950895DE01A65ABF4F0D90BC91A2
:100DC000A02D0895EA87FB876C877D870895DFDF74
:100DD000E5CFEA85FB856C857D850895EE87FF87E5
:100DE000AE85BF850E9433051E2F0895E4DF14965B
:100DF0000E9469090895E88BF98B6A8B7B8B0895B3
:100E00000B7FED89EA93DE01A95ABF4F0D90BC918B
:100E1000A02DFE01E75AFF4F0190F081E02D0995CA
:100E200050300895E889F9896A897B89AA85BB854C
:100E30008C859D850895DE011C960E94FE080E9407
:100E400069090895EE81FF81FA93EA930895E9878D
:100E5000FA876B877C870895AE81BF811196AE8338
:100E6000BF8311970895AA81BB818C819D810895CC
:100E7000EA83FB836C837D830895EA81FB816C8127
:100E80007D81A985BA858B859C850895A985BA85BC
:100E90008B859C850895109639F0A8958AEF90E08F
:100EA0000197F1F71197C9F70895309760407040A6
:100EB00009F070580895552342F4503811F4E0FFBA
:100EC00004C03196691F791F6BF050E8572711F461
:100ED0005F93CFC05F3F31F0660F000C5795679569
:100EE000752F08955F9300200AF0CFC0C8C050E866
:100EF000192E1522880F991F9527550F879550E8B1
:100F0000072E0522660F771F7527550F67950895E1
:100F1000689401C0E8945F93F2DF703818F07F3F67
:100F200008F4A7C056E1571BAAF4519558300EF4A7
:100F3000593030F0EFEFFFEF6FEF7FE777F91AC02E
:100F400077275523B9F0EE0FFF1F661F771F5A95BD
:100F5000D1F710C07727583028F0EF2FF62F672FE2
:100F60005850F9CF552331F076956795F795E79569
:100F70005A95D1F700200AF445D15F9108956894FD
:100F800001C0E894309760407040B1F0002426F032
:100F9000772312F4009436D1172E7EE1112032F01F
:100FA0007A95EE0FFF1F661F111CF9CFEF2FF62F5A
:100FB000612D5F938ADF5F9108954F93AF01FD012B
:100FC000DA01AB01BC01CA01402D012C142E4F9156
:100FD0000895EA0FFB1F681F0895E095F09560954E
:100FE000EF5FFF4F6F4F08955F9381DF903871F18E
:100FF00050E8152604C05F937ADF903839F17038D5
:1010000021F1572F591B2BF112F4D7DFFACF5831AA
:1010100018F0AA27BB278827583028F0AB2FB82F05
:1010200088275850F9CF552329F08695B795A7956D
:101030005A95D9F7502D512572F0CBDF38F46795CA
:10104000F795E795739513F420C0B7DF3EDF5F9106
:101050000895D8F7FBCFEA1BFB0B680B51F010F497
:101060000094BBDF662392F3EE0FFF1F661F7A9595
:10107000CBF7EE27FF27662777275F910895EFEFDD
:10108000FFEF6FE77FEF5F910895EFEFFFEF6FE7FF
:101090007FE75F9108955F932ADF703851F39038AE
:1010A00041F301240894791F23F41CF300203AF340
:1010B000ECCF0F921F932F933F934F93112722272B
:1010C0009927689FA0018F9F302D410D591F6B9F5D
:1010D000300D411D591F8E9F27D0BF9F25D06A9F7D
:1010E00023D0BE9F1DD0AF9F1BD0AE9F110D291FD7
:1010F000391F491F591FE32FF42F652F522F4F918E
:101100003F912F911F910F9066232AF0550FEE1FEC
:10111000FF1F661F02C073954BF2CDDE5F910895ED
:10112000100D211D391F02C0200D311D491F591FEF
:1011300008955F93DCDE703821F411200AF49FCF0C
:10114000A4CF903809F495CF01240894970B1BF491
:10115000D4F30020F3CF792F1F932F933F934F9316
:1011600011241127222733274427552790E2AE1751
:10117000BF078607410730F0AE1BBF0B860B410B44
:10118000089401C08894551F221F331F111CAA1FE9
:10119000BB1F881F441F9A9551F7F901612D4F918C
:1011A0003F912F911F91662332F0550FEE1FFF1FC5
:1011B000661F7A9543F27FDE5F91089599239AF036
:1011C000772342F0971748F029F4AE17BF07860738
:1011D00020F031F098948894089598940894089594
:1011E0001894889408957723C2F7971798F3A9F76E
:1011F000EA17FB07680788F399F3ECCF0024AF0DDB
:10120000B01D0895F09560957095E195FF4F6F4F73
:101210007F4F0895FE2FFF0FFF0B6F2F7F2F089535
:101220006F2F660F660B762F0895002498E0AA0FA3
:10123000001C0E1A10F40E0E01C0A1609A95B9F7A9
:10124000EA2FA02D089539D0F0DF0EF4E19508952E
:101250003F934F935F93002411244427552730E296
:10126000AA0FBB1F881F991F001C111C441F551F6C
:101270000E1A1F0A460B570B28F40E0E1F1E461F90
:10128000571F01C0A1603A9559F7FD01BC01D0017B
:10129000CA015F914F913F910895E894A7FF02C062
:1012A000A1956894E7FDE195C0DFEA2F0EF4E19582
:1012B0000895CEDFFD01BC010895E894E7FF02C068
:1012C000E1956894A7FF04C0A19500F8039400FA83
:1012D0000895ED91FC9111970895ED91FD916D9117
:1012E0007C9113970895ED93FD936D937C930895EE
:1012F000E881F9816A817B810895A881B9818A8119
:101300009B810895E883F9836A837B8308957A93A8
:101310006A93FA93EA9308959A938A93BA93AA9355
:101320000895182E862F612D192E972F712D1B2EA3
:10133000BF2FF12D1A2EAE2FE12D0895309760406A
:10134000704008955A934A933A932A931A930A93B2
:1013500008955D814C813B812A811981088108951E
:00000001FF
