:060000000C9462000C9458
:1000060000000C9400000C9400000C9400000C946A
:1000160000000C9400000C9400000C9400000C945A
:1000260000000C948F000C9400000C9400000C94BB
:1000360000000C9400000C9400000C9400000C943A
:1000460000000C9400000C9400000C940000102793
:10005600E80364000A00010000100001100001001E
:100066000000000000004D6F746F72206973206FEE
:100076006E007365636F6E643D2564004D6F746F2B
:1000860072206973206F6666000080C00600040057
:1000960066000C0060026C000D006C0282000C0011
:1000A60079026C000D00850282000C0092026C0041
:1000B6000D009E0282000200BF0290000000F8942C
:1000C600EE27ECBBF1E0FBBFEBBFE5BF8DE0A2E0A6
:1000D600BB27ED938A95E9F780E098E0A0E6ED93DB
:1000E6000197E9F7E2E9F0E085919591009761F0D3
:1000F600A591B59105901590BF01F00105900D925F
:100106000197E1F7FB01F0CFEFE5EDBFE8E0EEBFC9
:10011600C0E6D2E00C9454010A921A92FA926A93BB
:100126007A938A939A93AA93BA93EA93FA93EFB738
:10013600EA93F20131962F01EAE0F0E0E415F505C5
:1001460009F0A1C0F30131963F0144245524F4017E
:1001560031964F01EAE0F0E0E815F90544F0E8D001
:10016600A0E6B2E00E94BB03E5B3EE0FE5BBE5B344
:10017600E93010F0E1E0E5BBD401EAE0F0E00E94EE
:10018600D703E4E1F0E00E942C04E02179F0E5B326
:10019600E43011F4E4E0E5BBE5B3E13011F4E1E06D
:1001A600E5BBC6D0ACE6B2E00E94BB03D401E4E1F5
:1001B600F0E00E94D703EEE1F0E00E942C04E0217B
:1001C60041F0E5B3EE0FE5BBB3D0A9E7B2E00E947C
:1001D600BB03E5B3E93010F0E1E0E5BBD401EEE1A5
:1001E600F0E00E94D703E8E2F0E00E942C04E02150
:1001F60079F0E5B3E43011F4E4E0E5BBE5B3E130D2
:1002060011F4E1E0E5BB94D0A5E8B2E00E94BB039F
:10021600D401E8E2F0E00E94D703E2E3F0E00E94B6
:100226002C04E02141F0E5B3EE0FE5BB81D0A2E955
:10023600B2E00E94BB03E5B3E93010F0E1E0E5BBB4
:10024600D401E2E3F0E00E94D703ECE3F0E00E9481
:100256002C04E02179F0E5B3E43011F4E4E0E5BBE9
:10026600E5B3E13011F4E1E0E5BB62D0AEE9B2E01E
:100276000E94BB03ECE3F0E0E615F70521F46624E3
:10028600772488249924E991EFBFF991E991B991EE
:10029600A9919991899179916991F990199009900B
:1002A6001895E7EFEABBE0E0EBBBE7BBE8BBEFE0A6
:1002B600E4BBE1E0E5BBE0E0E1BBE2BBEDE0E3BFD0
:1002C600E0E0E2BFE0E6ECBFE2E0E9BFA0E162D039
:1002D6007894FFCFFFCFAA93EBB3EF70AE2FE881F0
:1002E600E07FEA2BEBBB82E08A95F1F7DA9A82E0AF
:1002F6008A95F1F7DA9882E08A95F1F776C0AA93A3
:10030600A881E9DFE881E295E883A881E4DF81E15D
:100316008A95F1F76AC0AA93E881F0E0E154FD4FAF
:10032600E081A981AE0FEBDFB980A88022960895FF
:10033600A2E00E94DC03ACE0E2DFA1E00E94DC0365
:10034600E0E0AE2EBE2E0895AA93A881AA3011F041
:10035600BD1448F0E0E0EA93A394AA2DDCDFA8815F
:10036600AA3009F442C0B394D89AA881C8DFD898B5
:100376003CC0BA93AA931A93A981BA81ED91A98335
:10038600BA831E2FE03019F0A12FDEDFF5CF1881DA
:1003960023960895AA93EAB3E06FEABBD29AD09A5D
:1003A600D19ADA98D898D998D880E881E058E0931D
:1003B600C102E881E054E093C202A4E1B0E00E94E9
:1003C60015040E94E2030E94E2030E94E203A0E2F7
:1003D60082DF81E28A95F1F7A8E291DFA4E08FDF60
:1003E600A5E88DDFA6E08BDFA3DF21960895BA93FB
:1003F600AA931A930A93AA81BB8112960E94380483
:10040600309759F1AA81BB8114960E9438048F0156
:10041600309761F00230E0E01E0798F0F80131975E
:100426008F01AA81BB811496ED93FC93AA81BB81AF
:100436001296ED91FD913196FE93EE933197AC8134
:10044600A083AA81BB810E943804FF232AF0ED9184
:10045600FD913196FE93EE9306C0AA81BB81EFEF24
:10046600FFEFED93FC931981088125960895BA93C1
:10047600AA9326970E94450410E0AC85BD85E0E06E
:10048600F0E0ED93FC93EA89FB893196EA8BFB8BCE
:100496003197E4912E2FE03009F415C1E12FE030B9
:1004A60039F4253211F411E002C00E94E9030AC1B1
:1004B600E130A9F4253219F40E94E90302C112E0E1
:1004C60040E000E02D3211F401E0FCC02B3211F4C3
:1004D6004BE2F8C0203211F440E2F4C002C0E23030
:1004E60039F450E013E0203311F40068EBC003C088
:1004F600E33009F0E7C0203310F02A3308F007C0D4
:10050600AAE05A9F502DE22FE0535E0FDBC0E22F88
:10051600E33649F40E94F003E889F989A481AA9395
:100526000E94F603CEC0E33741F40E94F0030E9416
:10053600FC030E94A2031E2F0AC0E03761F40E944A
:10054600F0030E94FC030E94AE031E2F08600260A7
:100556000F7730E034C0E43611F0E93611F4046068
:1005660002C0E53731F4E4E5F0E0EE83FF8315E001
:100576000CC0E83511F4086003C0E83709F0A1C0E3
:10058600EEE5F0E0EE83FF8314E002FF14C00E9464
:10059600F0030E940604AB85AA233AF4EA85FB859C
:1005A6000E942304EA87FB874DE2403011F01F5F6B
:1005B60001C00B7F04C00E94F0030E94060400FDE8
:1005C60011C0151778F407FF08C002FF04C00B7F9F
:1005D600242F115001C020E301C020E20E94E9034C
:1005E6005150EFCF312F01FF17C03030A1F003FF7C
:1005F60006C0EE81FF812591EE83FF8305C0AE81A3
:10060600BF812D91AE83BF830E94E903503009F06C
:1006160051503150EACF4BC020E3EE81FF810E945A
:100626003C04E887F987EE81FF813296EE83FF83EB
:10063600E885F985AA85BB85AE17BF0750F02F5F01
:10064600A885B985EA85FB85EA1BFB0BEA87FB874C
:10065600EFCF2A3328F003FF02C0295F01C0295DCE
:1006660004FD1AC0213320F4A885B985119709F431
:1006760009C0531710F000FF01C013C020E207FFA6
:100686000BC020E3006102FF07C00B7F4A930E9464
:10069600F603503009F051500E94E903503009F03A
:1006A60051503150A885B985129708F0B5CF00FF93
:1006B60008C0503031F05150E0E2EA930E94F60350
:1006C600F8CF10E0E0CEAC85BD850E9438040E94CC
:1006D6004C0464960895FF92F82E26970E944704CC
:1006E6000E940E04309719F4EFEFFFEF23C0DE01EE
:1006F60016960E941F048D010E940E04EE83FF834E
:10070600E0E0E887E987DE011A960E941F040E944E
:100716003804FA93EA931A930A93EAEFF1E0FA930C
:10072600EA93DE011A96A3DE9F01AE81BF81E0E067
:10073600EC93F9010E944E042A96FF900895BA930D
:10074600AA93A991B991EE27FF276D91662311F01F
:100756003196FBCF0895BA93AA93AA27BB27E991AE
:10076600F9910590002011F01196FBCFFD01089537
:100776000E94BC01E0E0EA93A1E00E948E01EBEA50
:10078600F2E0FA93EA93E8E7F0E0FA93EA93F301EA
:100796000E9427040E94400484E00E946E0328966B
:1007A600ABEAB2E00C94BC010E9432040E2ED401D6
:1007B60008950E948201A3E0B0E00C941504A0E322
:1007C6000E946E0181E28A95F1F708952A93AD851C
:1007D600BE85EF85F88909950895E889F9893497E2
:1007E600E88BF98B0895AD85BE85EF85F889099567
:1007F6000895A889B98914960E943804EE83FF8368
:10080600AE81BF810895A889B98914960E943804DB
:10081600EA87FB870895DE011C960E941F040E944A
:1008260038040895109639F0A8958AEF90E001975C
:10083600F1F71197C9F708950024AF0DB01D08957B
:10084600F195E195F04008956F2F660F660B762FB0
:100856000895EA17FB07E1E00CF4EE270895EA177E
:10086600FB07E1E00CF0EE270895ED91FC9111975E
:1008760008950590F491E02D08957A936A93FA937A
:10088600EA9308955A934A933A932A931A930A93AA
:1008960008955D814C813B812A81198108810895E3
:00000001FF
