:080000000C9467000C94000051
:100008000C9400000C9400000C9400000C94000068
:100018000C9400000C9400000C9400000C94000058
:100028000C9400000C9400000C9400000C94000048
:100038000C9400000C9400000C9400000C94000038
:100048000C9400000C9400000C940000EFDFBF7FBC
:1000580037383900343536003132330000304571D5
:1000680075616C004469766973696F6E004D756CD3
:100078007469706C69636174696F6E00537562743A
:1000880072616374696F6E004164646974696F6E4C
:10009800000080C00400930254000E00970258002C
:1000A800060060026600090066026C000F006F021D
:1000B80075000C007E02840009008A02900002008C
:1000C800A7029A000000F894EE27ECBBF1E0FBBF12
:1000D800EBBFE5BF8DE0A2E0BB27ED938A95E9F77A
:1000E80080E098E0A0E6ED930197E9F7ECE9F0E00D
:1000F80085919591009761F0A591B591059015901E
:10010800BF01F00105900D920197E1F7FB01F0CFD7
:10011800EFE5EDBFE8E0EEBFC0E6D2E00C943101B8
:100128002697E0E0E883E983E4E0EA83E0E0EB8314
:10013800EC83ED83AC81BD8114970CF08CC0EC810D
:10014800FD81ED56FD4FE081E5BBA4E1B0E00E94E2
:10015800D501989905C0E0E0EA83EB83989BFECF30
:10016800999906C0E1E0F0E0EA83FB83999BFECF12
:100178009A9906C0E2E0F0E0EA83FB839A9BFECFFF
:100188009B9906C0E3E0F0E0EA83FB839B9BFECFEC
:10019800AA81BB81149709F458C0EC81FD810E94A3
:1001A800DF01AA81BB81EA0FFB1FE883F983E956C7
:1001B800FD4FA0819BD0AC81BD81139721F4AA810A
:1001C800BB81109709F001C087D0AC81BD8113971E
:1001D80021F4AA81BB81129709F003C0A0E6B2E01E
:1001E8009AD0AC81BD81109721F4AA81BB81139765
:1001F80009F003C0A6E6B2E08ED0AC81BD811197AC
:1002080021F4AA81BB81139709F003C0AFE6B2E0DD
:1002180082D0AC81BD81129721F4AA81BB8113974A
:1002280009F003C0AEE7B2E076D0AC81BD81139788
:1002380021F4AA81BB81139709F003C0AAE8B2E0B0
:100248006AD0E4E0F0E0EA83FB83EC81FD8131963B
:10025800EC83FD836FCF269663CFE7EFEABBE0E040
:10026800EBBBE7BBE8BBE0EFE4BBEFE0E5BBE0E0FE
:10027800E1BBE2BBA0E160D053DFFFCFFFCFAA9381
:10028800EBB3EF70AE2FE881E07FEA2BEBBB82E0A7
:100298008A95F1F7DA9A82E08A95F1F7DA9882E09E
:1002A8008A95F1F771C0AA93A881E9DFE881E29500
:1002B800E883A881E4DF81E18A95F1F765C0AA9314
:1002C800E881F0E0E955FD4FE081A981AE0FEBDF51
:1002D8005980488022960895A2E058D0ACE0E3DF28
:1002E800A1E054D0E0E04E2E5E2E0895AA93A88196
:1002F800AA3011F0571448F0E0E0EA934394A42D93
:10030800DEDFA881AA3009F43FC05394D89AA881A7
:10031800CADFD89839C0BA93AA931A93A981BA8127
:10032800ED91A983BA831E2FE03019F0A12FDEDFEB
:10033800F5CF188123960895AA93EAB3E06FEABB34
:10034800D29AD09AD19ADA98D898D9987880E881B0
:10035800E058E093A902E881E054E093AA02A4E1FE
:10036800B0E00E94D50117D016D015D0A0E287DFE3
:1003780081E28A95F1F7A8E296DFA4E094DFA5E888
:1003880092DFA6E090DFA8DF219608958CDFA3E036
:10039800B0E00C94D501A0E372DF81E28A95F1F711
:1003A8000895109639F0A8958AEF90E00197F1F733
:1003B8001197C9F70895EE0FFF1FEE0FFF1F08955D
:00000001FF
