:0A0000000C9452000C9400000C94C4
:10000A0000000C9400000C9400000C9400000C9466
:10001A0000000C9400000C9400000C9400000C9456
:10002A0000000C9400000C9400000C9400000C9446
:10003A0000000C9400000C9400000C9400000C9436
:10004A0000000C9400000C94000000000001020360
:10005A000405060708090A0B0C0D0E0F53657420D8
:10006A0053657175656E7469616C000080C0020029
:10007A000400540010009C0256000F006002660043
:10008A000F006F0266000F007E0266000F008D02ED
:10009A0066000200AC0276000000F894EE27ECBB82
:1000AA00F1E0FBBFEBBFE5BF8DE0A2E0BB27ED931C
:1000BA008A95E9F780E098E0A0E6ED930197E9F7E1
:1000CA00E8E7F0E085919591009761F0A591B591E7
:1000DA0005901590BF01F00105900D920197E1F787
:1000EA00FB01F0CFEFE5EDBFE8E0EEBFC0E6D2E0FE
:1000FA000C947F00E7EFEABBE0E0EBBBE7BBE8BBB1
:10010A00EFE0E4BBE0E0E5BBE1BBE2BBA0E199D0F4
:10011A0044245524E0E1F0E04E165F069CF5ACE974
:10012A00B2E0A40DB51DEC91E5BB5BD0E5B3AE2FF3
:10013A00E0919D02EA1719F4A0E6B2E071D0E5B3A6
:10014A00AE2FE0919F02EA1719F4AFE6B2E068D049
:10015A00E5B3AE2FE091A302EA1719F4AEE7B2E0D5
:10016A005FD0E5B3AE2FE091AB02EA1719F4ADE820
:10017A00B2E056D0A8EEB3E00E945B01F2013196DC
:10018A002F01C8CFC5CFFFCFAA93EBB3EF70AE2F25
:10019A00E881E07FEA2BEBBB82E08A95F1F7DA9AF5
:1001AA0082E08A95F1F7DA9882E08A95F1F771C0D0
:1001BA00AA93A881E9DFE881E295E883A881E4DFD0
:1001CA0081E18A95F1F765C0AA93E881F0E0E455E8
:1001DA00FD4FE081A981AE0FEBDF7980688022961E
:1001EA000895A2E058D0ACE0E3DFA1E054D0E0E00B
:1001FA006E2E7E2E0895AA93A881AA3011F0791442
:10020A0048F0E0E0EA936394A62DDEDFA881AA30E5
:10021A0009F43FC07394D89AA881CADFD89839C024
:10022A00BA93AA931A93A981BA81ED91A983BA8341
:10023A001E2FE03019F0A12FDEDFF5CF18812396AB
:10024A000895AA93EAB3E06FEABBD29AD09AD19AF8
:10025A00DA98D898D9989880E881E058E093AE0265
:10026A00E881E054E093AF02A4E1B0E00E945B01B0
:10027A0017D016D015D0A0E287DF81E28A95F1F770
:10028A00A8E296DFA4E094DFA5E892DFA6E090DF7B
:10029A00A8DF219608958CDFA3E0B0E00C945B01FF
:1002AA00A0E372DF81E28A95F1F70895109639F09A
:1002BA00A8958AEF90E00197F1F71197C9F7089589
:00000001FF
