:0C0000000C9435000C9400000C940000DF
:10000C000C9400000C9400000C9400000C94000064
:10001C000C9400000C9400000C9400000C94000054
:10002C000C9400000C9400000C9400000C94000044
:10003C000C9400000C9400000C9400000C94000034
:10004C000C9400000C94000000003F5B667D7F0068
:10005C000200040054000500600256000000F894F1
:10006C00EE27ECBBF1E0FBBFEBBFE5BF8DE0A2E000
:10007C00BB27ED938A95E9F780E098E0A0E6ED9335
:10008C000197E9F7ECE5F0E085919591009761F027
:10009C00A591B59105901590BF01F00105900D92B9
:1000AC000197E1F7FB01F0CFEFE5EDBFE8E0EEBF24
:1000BC00C0E6D2E00C946200E0E0EABBE1E0EBBB0E
:1000CC00E0E0E7BBE8BBEFE7E4BBE0E0E5BBE1BBAE
:1000DC00E2BBE0E0E5BBC89917C0C89BFECF442447
:1000EC005524E5E0F0E04E165F0674F4A0E6B2E0AD
:1000FC00A40DB51DEC91E5BBACE2B1E00E948C0007
:10010C00F20131962F01EDCFE4CFFFCF109639F0ED
:10011C00A8958AEF90E00197F1F71197C9F7089528
:00000001FF
