:0A0000000C9433000C9400000C94E3
:10000A0000000C9400000C9400000C9400000C9466
:10001A0000000C9400000C9400000C9400000C9456
:10002A0000000C9400000C9400000C9400000C9446
:10003A0000000C9400000C9400000C9400000C9436
:10004A0000000C9400000C9400003F065B4F666DA4
:10005A007D077F6F0A00600254000000F894EE27C3
:10006A00ECBBF1E0FBBFEBBFE5BF8DE0A2E0BB2735
:10007A00ED938A95E9F780E098E0A0E6ED93019781
:10008A00E9F7EEE5F0E085919591009761F0A59189
:10009A00B59105901590BF01F00105900D92019759
:1000AA00E1F7FB01F0CFEFE5EDBFE8E0EEBFC0E618
:1000BA00D2E00C9469009098919AE52D2ED0909AEE
:1000CA009198E72D2AD00895E0E0EABBE1E0EBBB86
:1000DA00E0E0E7BBE8BBEFEFE4BBE0E0E5BBEFEF56
:1000EA00E1BBE0E0E2BBE0E0E2BBC89914C0C89B18
:1000FA00FECF5524EAE05E1648F47724EAE07E163D
:10010A0018F4D9DF7394FACF5394F4CF4394E9E007
:10011A00E41508F44424E7CFFFCFF0E0E05AFD4F9E
:10012A00E081E5BBA2E3B0E00C949B00109639F0A5
:10013A00A8958AEF90E00197F1F71197C9F708950A
:00000001FF
