:100000000C9447000C9400000C9400000C94000029
:100010000C9400000C9400000C9400000C94000060
:100020000C9400000C9400000C9474000C940000DC
:100030000C9400000C9400000C9400000C94000040
:100040000C9400000C9400000C9400000C94000030
:100050000C9400001027E80364000A00010000105F
:1000600000011000010000000000000000002564F5
:100070003A2025643A2025643A202564000080C097
:10008000080004006600020074027E000000F8947C
:10009000EE27ECBBF1E0FBBFEBBFE5BF8DE0A2E0DC
:1000A000BB27ED938A95E9F780E098E0A0E6ED9311
:1000B0000197E9F7E0E8F0E085919591009761F00C
:1000C000A591B59105901590BF01F00105900D9295
:1000D0000197E1F7FB01F0CFEFE5EDBFE8E0EEBF00
:1000E000C0E6D2E00C94BA000A921A929A93AA93AC
:1000F000BA93EA93FA93EFB7EA93F20131962F019C
:10010000EAE0F0E0E415F50559F5F30131963F0119
:1001100044245524E0E0E8BBD301E5E0F0E00E9490
:10012000A703309711F4E1E0E8BBECE3F0E0E6155B
:10013000F705B1F466247724F40131964F01ECE31E
:10014000F0E0E815F90561F488249924F501319669
:100150005F01E8E1F0E0EA15FB0511F4AA24BB24F5
:10016000E991EFBFF991E991B991A991999119900C
:1001700009901895E7EFEABBE0E0EBBBE1E0E7BBF5
:10018000E0E0E8BBE4BBE5BBE1BBE2BBEDE0E3BF25
:10019000E0E0E2BFE0E6ECBFE2E0E9BFA0E180D052
:1001A0007894E0E6F2E0FA93EA93EEE6F0E0FA9370
:1001B000EA93F5010E943F03F4010E943F03F3011B
:1001C0000E943F03F2010E943F0380E10E94F2027D
:1001D000649632D0A0E6B2E052D0E3CFFFCFAA932C
:1001E000EBB3EF70AE2FE881E07FEA2BEBBB82E050
:1001F0008A95F1F7DA9A82E08A95F1F7DA9882E047
:100200008A95F1F779C0AA93A881E9DFE881E295A0
:10021000E883A881E4DF81E18A95F1F76DC0AA93B4
:10022000E881F0E0EC58FD4FE081A981AE0FEBDFF3
:10023000D980C88022960895A2E00E944403ACE0D1
:10024000E2DFA1E00E944403E0E0CE2EDE2E08951E
:10025000AA93A881AA3021F0E0917802DE1648F036
:10026000E0E0EA93C394AC2DDADFA881AA3009F468
:1002700043C0D394D89AA881C6DFD8983DC0BA931A
:10028000AA931A93A981BA81ED91A983BA831E2FEB
:10029000E03019F0A12FDCDFF5CF18812396089507
:1002A000AA93EAB3E06FEABBD29AD09AD19ADA98CD
:1002B000D898D998E881E0937802E058E0937602E4
:1002C000E881E054E0937702A4E1B0E00E947D036E
:1002D0000E944A030E944A030E944A03A0E27FDF71
:1002E00081E28A95F1F7A8E28EDFA4E08CDFA5E831
:1002F0008ADFA6E088DFA0DF21960895BA93AA934B
:100300001A930A93AA81BB8112960E94B503309773
:1003100059F1AA81BB8114960E94B5038F013097D1
:1003200061F00230E0E01E0798F0F80131978F018C
:10033000AA81BB811496ED93FC93AA81BB8112968E
:10034000ED91FD913196FE93EE933197AC81A083B0
:10035000AA81BB810E94B503FF232AF0ED91FD9194
:100360003196FE93EE9306C0AA81BB81EFEFFFEFBB
:10037000ED93FC931981088125960895BA93AA9369
:1003800026970E94C20310E0AC85BD85E0E0F0E056
:10039000ED93FC93EA89FB893196EA8BFB8B3197CD
:1003A000E4912E2FE03009F415C1E12FE03039F44B
:1003B000253211F411E002C00E9451030AC1E1305C
:1003C000A9F4253219F40E94510302C112E040E061
:1003D00000E02D3211F401E0FCC02B3211F44BE2AD
:1003E000F8C0203211F440E2F4C002C0E23039F427
:1003F00050E013E0203311F40068EBC003C0E33099
:1004000009F0E7C0203310F02A3308F007C0AAE053
:100410005A9F502DE22FE0535E0FDBC0E22FE336F0
:1004200049F40E945803E889F989A481AA930E949B
:100430005E03CEC0E33741F40E9458030E94640378
:100440000E9426031E2F0AC0E03761F40E94580361
:100450000E9464030E9432031E2F086002600F771F
:1004600030E034C0E43611F0E93611F4046002C023
:10047000E53731F4E4E5F0E0EE83FF8315E00CC0EE
:10048000E83511F4086003C0E83709F0A1C0EEE5D3
:10049000F0E0EE83FF8314E002FF14C00E945803D3
:1004A0000E946E03AB85AA233AF4EA85FB850E947D
:1004B0008B03EA87FB874DE2403011F01F5F01C0DC
:1004C0000B7F04C00E9458030E946E0300FD11C000
:1004D000151778F407FF08C002FF04C00B7F242F14
:1004E000115001C020E301C020E20E94510351508D
:1004F000EFCF312F01FF17C03030A1F003FF06C04E
:10050000EE81FF812591EE83FF8305C0AE81BF811F
:100510002D91AE83BF830E945103503009F051509A
:100520003150EACF4BC020E3EE81FF810E94B90336
:10053000E887F987EE81FF813296EE83FF83E885B5
:10054000F985AA85BB85AE17BF0750F02F5FA88538
:10055000B985EA85FB85EA1BFB0BEA87FB87EFCFB2
:100560002A3328F003FF02C0295F01C0295D04FD82
:100570001AC0213320F4A885B985119709F409C060
:10058000531710F000FF01C013C020E207FF0BC09B
:1005900020E3006102FF07C00B7F4A930E945E03C5
:1005A000503009F051500E945103503009F0515021
:1005B0003150A885B985129708F0B5CF00FF08C063
:1005C000503031F05150E0E2EA930E945E03F8CFE0
:1005D00010E0E0CEAC85BD850E94B5030E94C90342
:1005E00064960895FF92F82E26970E94C4030E94F5
:1005F0007603309719F4EFEFFFEF23C0DE01169674
:100600000E9487038D010E947603EE83FF83E0E062
:10061000E887E987DE011A960E9487030E94B503E6
:10062000FA93EA931A930A93EEE7F1E0FA93EA93C6
:10063000DE011A96A3DE9F01AE81BF81E0E0EC935C
:10064000F9010E94CB032A96FF900895BA93AA93CA
:10065000A991B991EE27FF276D91662311F031968C
:10066000FBCF0895BA93AA93AA27BB27E991F991E2
:100670000590002011F01196FBCFFD0108950E9416
:100680008F030E94BD0308950E940301A3E0B0E020
:100690000C947D03A0E30E94EF0081E28A95F1F7BC
:1006A00008952A93AD85BE85EF85F889099508954B
:1006B000E889F9893497E88BF98B0895AD85BE8573
:1006C000EF85F88909950895A889B98914960E943B
:1006D000B503EE83FF83AE81BF810895A889B989F0
:1006E00014960E94B503EA87FB870895DE011C96E5
:1006F0000E9487030E94B5030895109639F0A895CB
:100700008AEF90E00197F1F71197C9F70895002457
:10071000AF0DB01D0895F195E195F04008956F2F4C
:10072000660F660B762F08950024112490E1AA0F1E
:10073000BB1F001C111C0E1A1F0A18F40E0E1F1EE0
:1007400001C0A1609A9599F7FD01D0010895E89440
:10075000B7FF04C0A095B09511966894F7FDDBDF54
:10076000E3DFFD010EF4D7DF0895ED91FC911197C1
:1007700008950590F491E02D08957A936A93FA9381
:10078000EA9308955A934A933A932A931A930A93B1
:1007900008955D814C813B812A81198108810895EA
:00000001FF
